{
	"AddressExample.sol": {
		"AddressExample": {
			"abi": [
				{
					"inputs": [],
					"name": "getBalanceOfAccount",
					"outputs": [
						{
							"internalType": "uint256",
							"name": "",
							"type": "uint256"
						}
					],
					"stateMutability": "view",
					"type": "function"
				},
				{
					"inputs": [],
					"name": "myAddress",
					"outputs": [
						{
							"internalType": "address",
							"name": "",
							"type": "address"
						}
					],
					"stateMutability": "view",
					"type": "function"
				},
				{
					"inputs": [
						{
							"internalType": "address",
							"name": "_address",
							"type": "address"
						}
					],
					"name": "setAddress",
					"outputs": [],
					"stateMutability": "nonpayable",
					"type": "function"
				}
			],
			"devdoc": {
				"kind": "dev",
				"methods": {},
				"version": 1
			},
			"evm": {
				"assembly": "    /* \"AddressExample.sol\":61:328  contract AddressExample {\r... */\n  mstore(0x40, 0x80)\n  callvalue\n  dup1\n  iszero\n  tag_1\n  jumpi\n  0x00\n  dup1\n  revert\ntag_1:\n  pop\n  dataSize(sub_0)\n  dup1\n  dataOffset(sub_0)\n  0x00\n  codecopy\n  0x00\n  return\nstop\n\nsub_0: assembly {\n        /* \"AddressExample.sol\":61:328  contract AddressExample {\r... */\n      mstore(0x40, 0x80)\n      callvalue\n      dup1\n      iszero\n      tag_1\n      jumpi\n      0x00\n      dup1\n      revert\n    tag_1:\n      pop\n      jumpi(tag_2, lt(calldatasize, 0x04))\n      shr(0xe0, calldataload(0x00))\n      dup1\n      0x26b85ee1\n      eq\n      tag_3\n      jumpi\n      dup1\n      0xdee60607\n      eq\n      tag_4\n      jumpi\n      dup1\n      0xe30081a0\n      eq\n      tag_5\n      jumpi\n    tag_2:\n      0x00\n      dup1\n      revert\n        /* \"AddressExample.sol\":92:116  address public myAddress */\n    tag_3:\n      tag_6\n      tag_7\n      jump\t// in\n    tag_6:\n      mload(0x40)\n      tag_8\n      swap2\n      swap1\n      tag_9\n      jump\t// in\n    tag_8:\n      mload(0x40)\n      dup1\n      swap2\n      sub\n      swap1\n      return\n        /* \"AddressExample.sol\":225:325  function getBalanceOfAccount() public view returns(uint) {\r... */\n    tag_4:\n      tag_10\n      tag_11\n      jump\t// in\n    tag_10:\n      mload(0x40)\n      tag_12\n      swap2\n      swap1\n      tag_13\n      jump\t// in\n    tag_12:\n      mload(0x40)\n      dup1\n      swap2\n      sub\n      swap1\n      return\n        /* \"AddressExample.sol\":129:213  function setAddress(address _address) public {\r... */\n    tag_5:\n      tag_14\n      0x04\n      dup1\n      calldatasize\n      sub\n      dup2\n      add\n      swap1\n      tag_15\n      swap2\n      swap1\n      tag_16\n      jump\t// in\n    tag_15:\n      tag_17\n      jump\t// in\n    tag_14:\n      stop\n        /* \"AddressExample.sol\":92:116  address public myAddress */\n    tag_7:\n      0x00\n      dup1\n      sload\n      swap1\n      0x0100\n      exp\n      swap1\n      div\n      0xffffffffffffffffffffffffffffffffffffffff\n      and\n      dup2\n      jump\t// out\n        /* \"AddressExample.sol\":225:325  function getBalanceOfAccount() public view returns(uint) {\r... */\n    tag_11:\n        /* \"AddressExample.sol\":276:280  uint */\n      0x00\n        /* \"AddressExample.sol\":300:309  myAddress */\n      dup1\n      0x00\n      swap1\n      sload\n      swap1\n      0x0100\n      exp\n      swap1\n      div\n      0xffffffffffffffffffffffffffffffffffffffff\n      and\n        /* \"AddressExample.sol\":300:317  myAddress.balance */\n      0xffffffffffffffffffffffffffffffffffffffff\n      and\n      balance\n        /* \"AddressExample.sol\":293:317  return myAddress.balance */\n      swap1\n      pop\n        /* \"AddressExample.sol\":225:325  function getBalanceOfAccount() public view returns(uint) {\r... */\n      swap1\n      jump\t// out\n        /* \"AddressExample.sol\":129:213  function setAddress(address _address) public {\r... */\n    tag_17:\n        /* \"AddressExample.sol\":197:205  _address */\n      dup1\n        /* \"AddressExample.sol\":185:194  myAddress */\n      0x00\n      dup1\n        /* \"AddressExample.sol\":185:205  myAddress = _address */\n      0x0100\n      exp\n      dup2\n      sload\n      dup2\n      0xffffffffffffffffffffffffffffffffffffffff\n      mul\n      not\n      and\n      swap1\n      dup4\n      0xffffffffffffffffffffffffffffffffffffffff\n      and\n      mul\n      or\n      swap1\n      sstore\n      pop\n        /* \"AddressExample.sol\":129:213  function setAddress(address _address) public {\r... */\n      pop\n      jump\t// out\n        /* \"#utility.yul\":7:146   */\n    tag_21:\n      0x00\n        /* \"#utility.yul\":91:97   */\n      dup2\n        /* \"#utility.yul\":78:98   */\n      calldataload\n        /* \"#utility.yul\":69:98   */\n      swap1\n      pop\n        /* \"#utility.yul\":107:140   */\n      tag_23\n        /* \"#utility.yul\":134:139   */\n      dup2\n        /* \"#utility.yul\":107:140   */\n      tag_24\n      jump\t// in\n    tag_23:\n        /* \"#utility.yul\":59:146   */\n      swap3\n      swap2\n      pop\n      pop\n      jump\t// out\n        /* \"#utility.yul\":152:414   */\n    tag_16:\n      0x00\n        /* \"#utility.yul\":260:262   */\n      0x20\n        /* \"#utility.yul\":248:257   */\n      dup3\n        /* \"#utility.yul\":239:246   */\n      dup5\n        /* \"#utility.yul\":235:258   */\n      sub\n        /* \"#utility.yul\":231:263   */\n      slt\n        /* \"#utility.yul\":228:230   */\n      iszero\n      tag_26\n      jumpi\n        /* \"#utility.yul\":276:277   */\n      0x00\n        /* \"#utility.yul\":273:274   */\n      dup1\n        /* \"#utility.yul\":266:278   */\n      revert\n        /* \"#utility.yul\":228:230   */\n    tag_26:\n        /* \"#utility.yul\":319:320   */\n      0x00\n        /* \"#utility.yul\":344:397   */\n      tag_27\n        /* \"#utility.yul\":389:396   */\n      dup5\n        /* \"#utility.yul\":380:386   */\n      dup3\n        /* \"#utility.yul\":369:378   */\n      dup6\n        /* \"#utility.yul\":365:387   */\n      add\n        /* \"#utility.yul\":344:397   */\n      tag_21\n      jump\t// in\n    tag_27:\n        /* \"#utility.yul\":334:397   */\n      swap2\n      pop\n        /* \"#utility.yul\":290:407   */\n      pop\n        /* \"#utility.yul\":218:414   */\n      swap3\n      swap2\n      pop\n      pop\n      jump\t// out\n        /* \"#utility.yul\":420:538   */\n    tag_28:\n        /* \"#utility.yul\":507:531   */\n      tag_30\n        /* \"#utility.yul\":525:530   */\n      dup2\n        /* \"#utility.yul\":507:531   */\n      tag_31\n      jump\t// in\n    tag_30:\n        /* \"#utility.yul\":502:505   */\n      dup3\n        /* \"#utility.yul\":495:532   */\n      mstore\n        /* \"#utility.yul\":485:538   */\n      pop\n      pop\n      jump\t// out\n        /* \"#utility.yul\":544:662   */\n    tag_32:\n        /* \"#utility.yul\":631:655   */\n      tag_34\n        /* \"#utility.yul\":649:654   */\n      dup2\n        /* \"#utility.yul\":631:655   */\n      tag_35\n      jump\t// in\n    tag_34:\n        /* \"#utility.yul\":626:629   */\n      dup3\n        /* \"#utility.yul\":619:656   */\n      mstore\n        /* \"#utility.yul\":609:662   */\n      pop\n      pop\n      jump\t// out\n        /* \"#utility.yul\":668:890   */\n    tag_9:\n      0x00\n        /* \"#utility.yul\":799:801   */\n      0x20\n        /* \"#utility.yul\":788:797   */\n      dup3\n        /* \"#utility.yul\":784:802   */\n      add\n        /* \"#utility.yul\":776:802   */\n      swap1\n      pop\n        /* \"#utility.yul\":812:883   */\n      tag_37\n        /* \"#utility.yul\":880:881   */\n      0x00\n        /* \"#utility.yul\":869:878   */\n      dup4\n        /* \"#utility.yul\":865:882   */\n      add\n        /* \"#utility.yul\":856:862   */\n      dup5\n        /* \"#utility.yul\":812:883   */\n      tag_28\n      jump\t// in\n    tag_37:\n        /* \"#utility.yul\":766:890   */\n      swap3\n      swap2\n      pop\n      pop\n      jump\t// out\n        /* \"#utility.yul\":896:1118   */\n    tag_13:\n      0x00\n        /* \"#utility.yul\":1027:1029   */\n      0x20\n        /* \"#utility.yul\":1016:1025   */\n      dup3\n        /* \"#utility.yul\":1012:1030   */\n      add\n        /* \"#utility.yul\":1004:1030   */\n      swap1\n      pop\n        /* \"#utility.yul\":1040:1111   */\n      tag_39\n        /* \"#utility.yul\":1108:1109   */\n      0x00\n        /* \"#utility.yul\":1097:1106   */\n      dup4\n        /* \"#utility.yul\":1093:1110   */\n      add\n        /* \"#utility.yul\":1084:1090   */\n      dup5\n        /* \"#utility.yul\":1040:1111   */\n      tag_32\n      jump\t// in\n    tag_39:\n        /* \"#utility.yul\":994:1118   */\n      swap3\n      swap2\n      pop\n      pop\n      jump\t// out\n        /* \"#utility.yul\":1124:1220   */\n    tag_31:\n      0x00\n        /* \"#utility.yul\":1190:1214   */\n      tag_41\n        /* \"#utility.yul\":1208:1213   */\n      dup3\n        /* \"#utility.yul\":1190:1214   */\n      tag_42\n      jump\t// in\n    tag_41:\n        /* \"#utility.yul\":1179:1214   */\n      swap1\n      pop\n        /* \"#utility.yul\":1169:1220   */\n      swap2\n      swap1\n      pop\n      jump\t// out\n        /* \"#utility.yul\":1226:1352   */\n    tag_42:\n      0x00\n        /* \"#utility.yul\":1303:1345   */\n      0xffffffffffffffffffffffffffffffffffffffff\n        /* \"#utility.yul\":1296:1301   */\n      dup3\n        /* \"#utility.yul\":1292:1346   */\n      and\n        /* \"#utility.yul\":1281:1346   */\n      swap1\n      pop\n        /* \"#utility.yul\":1271:1352   */\n      swap2\n      swap1\n      pop\n      jump\t// out\n        /* \"#utility.yul\":1358:1435   */\n    tag_35:\n      0x00\n        /* \"#utility.yul\":1424:1429   */\n      dup2\n        /* \"#utility.yul\":1413:1429   */\n      swap1\n      pop\n        /* \"#utility.yul\":1403:1435   */\n      swap2\n      swap1\n      pop\n      jump\t// out\n        /* \"#utility.yul\":1441:1563   */\n    tag_24:\n        /* \"#utility.yul\":1514:1538   */\n      tag_46\n        /* \"#utility.yul\":1532:1537   */\n      dup2\n        /* \"#utility.yul\":1514:1538   */\n      tag_31\n      jump\t// in\n    tag_46:\n        /* \"#utility.yul\":1507:1512   */\n      dup2\n        /* \"#utility.yul\":1504:1539   */\n      eq\n        /* \"#utility.yul\":1494:1496   */\n      tag_47\n      jumpi\n        /* \"#utility.yul\":1553:1554   */\n      0x00\n        /* \"#utility.yul\":1550:1551   */\n      dup1\n        /* \"#utility.yul\":1543:1555   */\n      revert\n        /* \"#utility.yul\":1494:1496   */\n    tag_47:\n        /* \"#utility.yul\":1484:1563   */\n      pop\n      jump\t// out\n\n    auxdata: 0xa2646970667358221220a102094ce92aba73d1421792e3a2e538317bcc30d0bfb6aede2e9333e32795b764736f6c63430008010033\n}\n",
				"bytecode": {
					"linkReferences": {},
					"object": "608060405234801561001057600080fd5b50610260806100206000396000f3fe608060405234801561001057600080fd5b50600436106100415760003560e01c806326b85ee114610046578063dee6060714610064578063e30081a014610082575b600080fd5b61004e61009e565b60405161005b91906101a1565b60405180910390f35b61006c6100c2565b60405161007991906101bc565b60405180910390f35b61009c6004803603810190610097919061015a565b610102565b005b60008054906101000a900473ffffffffffffffffffffffffffffffffffffffff1681565b60008060009054906101000a900473ffffffffffffffffffffffffffffffffffffffff1673ffffffffffffffffffffffffffffffffffffffff1631905090565b806000806101000a81548173ffffffffffffffffffffffffffffffffffffffff021916908373ffffffffffffffffffffffffffffffffffffffff16021790555050565b60008135905061015481610213565b92915050565b60006020828403121561016c57600080fd5b600061017a84828501610145565b91505092915050565b61018c816101d7565b82525050565b61019b81610209565b82525050565b60006020820190506101b66000830184610183565b92915050565b60006020820190506101d16000830184610192565b92915050565b60006101e2826101e9565b9050919050565b600073ffffffffffffffffffffffffffffffffffffffff82169050919050565b6000819050919050565b61021c816101d7565b811461022757600080fd5b5056fea2646970667358221220a102094ce92aba73d1421792e3a2e538317bcc30d0bfb6aede2e9333e32795b764736f6c63430008010033",
					"opcodes": "PUSH1 0x80 PUSH1 0x40 MSTORE CALLVALUE DUP1 ISZERO PUSH2 0x10 JUMPI PUSH1 0x0 DUP1 REVERT JUMPDEST POP PUSH2 0x260 DUP1 PUSH2 0x20 PUSH1 0x0 CODECOPY PUSH1 0x0 RETURN INVALID PUSH1 0x80 PUSH1 0x40 MSTORE CALLVALUE DUP1 ISZERO PUSH2 0x10 JUMPI PUSH1 0x0 DUP1 REVERT JUMPDEST POP PUSH1 0x4 CALLDATASIZE LT PUSH2 0x41 JUMPI PUSH1 0x0 CALLDATALOAD PUSH1 0xE0 SHR DUP1 PUSH4 0x26B85EE1 EQ PUSH2 0x46 JUMPI DUP1 PUSH4 0xDEE60607 EQ PUSH2 0x64 JUMPI DUP1 PUSH4 0xE30081A0 EQ PUSH2 0x82 JUMPI JUMPDEST PUSH1 0x0 DUP1 REVERT JUMPDEST PUSH2 0x4E PUSH2 0x9E JUMP JUMPDEST PUSH1 0x40 MLOAD PUSH2 0x5B SWAP2 SWAP1 PUSH2 0x1A1 JUMP JUMPDEST PUSH1 0x40 MLOAD DUP1 SWAP2 SUB SWAP1 RETURN JUMPDEST PUSH2 0x6C PUSH2 0xC2 JUMP JUMPDEST PUSH1 0x40 MLOAD PUSH2 0x79 SWAP2 SWAP1 PUSH2 0x1BC JUMP JUMPDEST PUSH1 0x40 MLOAD DUP1 SWAP2 SUB SWAP1 RETURN JUMPDEST PUSH2 0x9C PUSH1 0x4 DUP1 CALLDATASIZE SUB DUP2 ADD SWAP1 PUSH2 0x97 SWAP2 SWAP1 PUSH2 0x15A JUMP JUMPDEST PUSH2 0x102 JUMP JUMPDEST STOP JUMPDEST PUSH1 0x0 DUP1 SLOAD SWAP1 PUSH2 0x100 EXP SWAP1 DIV PUSH20 0xFFFFFFFFFFFFFFFFFFFFFFFFFFFFFFFFFFFFFFFF AND DUP2 JUMP JUMPDEST PUSH1 0x0 DUP1 PUSH1 0x0 SWAP1 SLOAD SWAP1 PUSH2 0x100 EXP SWAP1 DIV PUSH20 0xFFFFFFFFFFFFFFFFFFFFFFFFFFFFFFFFFFFFFFFF AND PUSH20 0xFFFFFFFFFFFFFFFFFFFFFFFFFFFFFFFFFFFFFFFF AND BALANCE SWAP1 POP SWAP1 JUMP JUMPDEST DUP1 PUSH1 0x0 DUP1 PUSH2 0x100 EXP DUP2 SLOAD DUP2 PUSH20 0xFFFFFFFFFFFFFFFFFFFFFFFFFFFFFFFFFFFFFFFF MUL NOT AND SWAP1 DUP4 PUSH20 0xFFFFFFFFFFFFFFFFFFFFFFFFFFFFFFFFFFFFFFFF AND MUL OR SWAP1 SSTORE POP POP JUMP JUMPDEST PUSH1 0x0 DUP2 CALLDATALOAD SWAP1 POP PUSH2 0x154 DUP2 PUSH2 0x213 JUMP JUMPDEST SWAP3 SWAP2 POP POP JUMP JUMPDEST PUSH1 0x0 PUSH1 0x20 DUP3 DUP5 SUB SLT ISZERO PUSH2 0x16C JUMPI PUSH1 0x0 DUP1 REVERT JUMPDEST PUSH1 0x0 PUSH2 0x17A DUP5 DUP3 DUP6 ADD PUSH2 0x145 JUMP JUMPDEST SWAP2 POP POP SWAP3 SWAP2 POP POP JUMP JUMPDEST PUSH2 0x18C DUP2 PUSH2 0x1D7 JUMP JUMPDEST DUP3 MSTORE POP POP JUMP JUMPDEST PUSH2 0x19B DUP2 PUSH2 0x209 JUMP JUMPDEST DUP3 MSTORE POP POP JUMP JUMPDEST PUSH1 0x0 PUSH1 0x20 DUP3 ADD SWAP1 POP PUSH2 0x1B6 PUSH1 0x0 DUP4 ADD DUP5 PUSH2 0x183 JUMP JUMPDEST SWAP3 SWAP2 POP POP JUMP JUMPDEST PUSH1 0x0 PUSH1 0x20 DUP3 ADD SWAP1 POP PUSH2 0x1D1 PUSH1 0x0 DUP4 ADD DUP5 PUSH2 0x192 JUMP JUMPDEST SWAP3 SWAP2 POP POP JUMP JUMPDEST PUSH1 0x0 PUSH2 0x1E2 DUP3 PUSH2 0x1E9 JUMP JUMPDEST SWAP1 POP SWAP2 SWAP1 POP JUMP JUMPDEST PUSH1 0x0 PUSH20 0xFFFFFFFFFFFFFFFFFFFFFFFFFFFFFFFFFFFFFFFF DUP3 AND SWAP1 POP SWAP2 SWAP1 POP JUMP JUMPDEST PUSH1 0x0 DUP2 SWAP1 POP SWAP2 SWAP1 POP JUMP JUMPDEST PUSH2 0x21C DUP2 PUSH2 0x1D7 JUMP JUMPDEST DUP2 EQ PUSH2 0x227 JUMPI PUSH1 0x0 DUP1 REVERT JUMPDEST POP JUMP INVALID LOG2 PUSH5 0x6970667358 0x22 SLT KECCAK256 LOG1 MUL MULMOD 0x4C 0xE9 0x2A 0xBA PUSH20 0xD1421792E3A2E538317BCC30D0BFB6AEDE2E9333 0xE3 0x27 SWAP6 0xB7 PUSH5 0x736F6C6343 STOP ADDMOD ADD STOP CALLER "
				},
				"gasEstimates": {
					"creation": {
						"codeDepositCost": "121600",
						"executionCost": "165",
						"totalCost": "121765"
					},
					"external": {
						"getBalanceOfAccount()": "1879",
						"myAddress()": "1189",
						"setAddress(address)": "21344"
					}
				},
				"methodIdentifiers": {
					"getBalanceOfAccount()": "dee60607",
					"myAddress()": "26b85ee1",
					"setAddress(address)": "e30081a0"
				}
			},
			"storageLayout": {
				"storage": [
					{
						"astId": 3,
						"contract": "AddressExample.sol:AddressExample",
						"label": "myAddress",
						"offset": 0,
						"slot": "0",
						"type": "t_address"
					}
				],
				"types": {
					"t_address": {
						"encoding": "inplace",
						"label": "address",
						"numberOfBytes": "20"
					}
				}
			},
			"userdoc": {
				"kind": "user",
				"methods": {},
				"version": 1
			}
		}
	}
}