{
	"SendMoneyAddWithDraw.sol": {
		"SendMoneyExample": {
			"abi": [
				{
					"inputs": [],
					"name": "balanceReceived",
					"outputs": [
						{
							"internalType": "uint256",
							"name": "",
							"type": "uint256"
						}
					],
					"stateMutability": "view",
					"type": "function"
				},
				{
					"inputs": [],
					"name": "getBalance",
					"outputs": [
						{
							"internalType": "uint256",
							"name": "",
							"type": "uint256"
						}
					],
					"stateMutability": "view",
					"type": "function"
				},
				{
					"inputs": [],
					"name": "receiveMoney",
					"outputs": [],
					"stateMutability": "payable",
					"type": "function"
				},
				{
					"inputs": [],
					"name": "withdrawMoney",
					"outputs": [],
					"stateMutability": "nonpayable",
					"type": "function"
				},
				{
					"inputs": [
						{
							"internalType": "address payable",
							"name": "_to",
							"type": "address"
						}
					],
					"name": "withdrawMoneyTo",
					"outputs": [],
					"stateMutability": "nonpayable",
					"type": "function"
				}
			],
			"devdoc": {
				"kind": "dev",
				"methods": {},
				"version": 1
			},
			"evm": {
				"assembly": "    /* \"SendMoneyAddWithDraw.sol\":102:618  contract SendMoneyExample {\r... */\n  mstore(0x40, 0x80)\n  callvalue\n  dup1\n  iszero\n  tag_1\n  jumpi\n  0x00\n  dup1\n  revert\ntag_1:\n  pop\n  dataSize(sub_0)\n  dup1\n  dataOffset(sub_0)\n  0x00\n  codecopy\n  0x00\n  return\nstop\n\nsub_0: assembly {\n        /* \"SendMoneyAddWithDraw.sol\":102:618  contract SendMoneyExample {\r... */\n      mstore(0x40, 0x80)\n      jumpi(tag_1, lt(calldatasize, 0x04))\n      shr(0xe0, calldataload(0x00))\n      dup1\n      0x0ff8d8a5\n      eq\n      tag_2\n      jumpi\n      dup1\n      0x12065fe0\n      eq\n      tag_3\n      jumpi\n      dup1\n      0x52a90c42\n      eq\n      tag_4\n      jumpi\n      dup1\n      0x6d26ec18\n      eq\n      tag_5\n      jumpi\n      dup1\n      0xac446002\n      eq\n      tag_6\n      jumpi\n    tag_1:\n      0x00\n      dup1\n      revert\n        /* \"SendMoneyAddWithDraw.sol\":517:615  function withdrawMoneyTo(address payable _to) public {\r... */\n    tag_2:\n      callvalue\n      dup1\n      iszero\n      tag_7\n      jumpi\n      0x00\n      dup1\n      revert\n    tag_7:\n      pop\n      tag_8\n      0x04\n      dup1\n      calldatasize\n      sub\n      dup2\n      add\n      swap1\n      tag_9\n      swap2\n      swap1\n      tag_10\n      jump\t// in\n    tag_9:\n      tag_11\n      jump\t// in\n    tag_8:\n      stop\n        /* \"SendMoneyAddWithDraw.sol\":279:374  function getBalance() public view returns(uint) {\r... */\n    tag_3:\n      callvalue\n      dup1\n      iszero\n      tag_12\n      jumpi\n      0x00\n      dup1\n      revert\n    tag_12:\n      pop\n      tag_13\n      tag_14\n      jump\t// in\n    tag_13:\n      mload(0x40)\n      tag_15\n      swap2\n      swap1\n      tag_16\n      jump\t// in\n    tag_15:\n      mload(0x40)\n      dup1\n      swap2\n      sub\n      swap1\n      return\n        /* \"SendMoneyAddWithDraw.sol\":137:164  uint public balanceReceived */\n    tag_4:\n      callvalue\n      dup1\n      iszero\n      tag_17\n      jumpi\n      0x00\n      dup1\n      revert\n    tag_17:\n      pop\n      tag_18\n      tag_19\n      jump\t// in\n    tag_18:\n      mload(0x40)\n      tag_20\n      swap2\n      swap1\n      tag_16\n      jump\t// in\n    tag_20:\n      mload(0x40)\n      dup1\n      swap2\n      sub\n      swap1\n      return\n        /* \"SendMoneyAddWithDraw.sol\":177:263  function receiveMoney() public payable {\r... */\n    tag_5:\n      tag_21\n      tag_22\n      jump\t// in\n    tag_21:\n      stop\n        /* \"SendMoneyAddWithDraw.sol\":382:509  function withdrawMoney() public {\r... */\n    tag_6:\n      callvalue\n      dup1\n      iszero\n      tag_23\n      jumpi\n      0x00\n      dup1\n      revert\n    tag_23:\n      pop\n      tag_24\n      tag_25\n      jump\t// in\n    tag_24:\n      stop\n        /* \"SendMoneyAddWithDraw.sol\":517:615  function withdrawMoneyTo(address payable _to) public {\r... */\n    tag_11:\n        /* \"SendMoneyAddWithDraw.sol\":581:584  _to */\n      dup1\n        /* \"SendMoneyAddWithDraw.sol\":581:593  _to.transfer */\n      0xffffffffffffffffffffffffffffffffffffffff\n      and\n        /* \"SendMoneyAddWithDraw.sol\":581:607  _to.transfer(getBalance()) */\n      0x08fc\n        /* \"SendMoneyAddWithDraw.sol\":594:606  getBalance() */\n      tag_27\n        /* \"SendMoneyAddWithDraw.sol\":594:604  getBalance */\n      tag_14\n        /* \"SendMoneyAddWithDraw.sol\":594:606  getBalance() */\n      jump\t// in\n    tag_27:\n        /* \"SendMoneyAddWithDraw.sol\":581:607  _to.transfer(getBalance()) */\n      swap1\n      dup2\n      iszero\n      mul\n      swap1\n      mload(0x40)\n      0x00\n      mload(0x40)\n      dup1\n      dup4\n      sub\n      dup2\n      dup6\n      dup9\n      dup9\n      call\n      swap4\n      pop\n      pop\n      pop\n      pop\n      iszero\n      dup1\n      iszero\n      tag_29\n      jumpi\n      returndatasize\n      0x00\n      dup1\n      returndatacopy\n      revert(0x00, returndatasize)\n    tag_29:\n      pop\n        /* \"SendMoneyAddWithDraw.sol\":517:615  function withdrawMoneyTo(address payable _to) public {\r... */\n      pop\n      jump\t// out\n        /* \"SendMoneyAddWithDraw.sol\":279:374  function getBalance() public view returns(uint) {\r... */\n    tag_14:\n        /* \"SendMoneyAddWithDraw.sol\":321:325  uint */\n      0x00\n        /* \"SendMoneyAddWithDraw.sol\":345:366  address(this).balance */\n      selfbalance\n        /* \"SendMoneyAddWithDraw.sol\":338:366  return address(this).balance */\n      swap1\n      pop\n        /* \"SendMoneyAddWithDraw.sol\":279:374  function getBalance() public view returns(uint) {\r... */\n      swap1\n      jump\t// out\n        /* \"SendMoneyAddWithDraw.sol\":137:164  uint public balanceReceived */\n    tag_19:\n      sload(0x00)\n      dup2\n      jump\t// out\n        /* \"SendMoneyAddWithDraw.sol\":177:263  function receiveMoney() public payable {\r... */\n    tag_22:\n        /* \"SendMoneyAddWithDraw.sol\":246:255  msg.value */\n      callvalue\n        /* \"SendMoneyAddWithDraw.sol\":227:242  balanceReceived */\n      0x00\n      dup1\n        /* \"SendMoneyAddWithDraw.sol\":227:255  balanceReceived += msg.value */\n      dup3\n      dup3\n      sload\n      tag_32\n      swap2\n      swap1\n      tag_33\n      jump\t// in\n    tag_32:\n      swap3\n      pop\n      pop\n      dup2\n      swap1\n      sstore\n      pop\n        /* \"SendMoneyAddWithDraw.sol\":177:263  function receiveMoney() public payable {\r... */\n      jump\t// out\n        /* \"SendMoneyAddWithDraw.sol\":382:509  function withdrawMoney() public {\r... */\n    tag_25:\n        /* \"SendMoneyAddWithDraw.sol\":425:443  address payable to */\n      0x00\n        /* \"SendMoneyAddWithDraw.sol\":454:464  msg.sender */\n      caller\n        /* \"SendMoneyAddWithDraw.sol\":425:465  address payable to = payable(msg.sender) */\n      swap1\n      pop\n        /* \"SendMoneyAddWithDraw.sol\":476:478  to */\n      dup1\n        /* \"SendMoneyAddWithDraw.sol\":476:487  to.transfer */\n      0xffffffffffffffffffffffffffffffffffffffff\n      and\n        /* \"SendMoneyAddWithDraw.sol\":476:501  to.transfer(getBalance()) */\n      0x08fc\n        /* \"SendMoneyAddWithDraw.sol\":488:500  getBalance() */\n      tag_35\n        /* \"SendMoneyAddWithDraw.sol\":488:498  getBalance */\n      tag_14\n        /* \"SendMoneyAddWithDraw.sol\":488:500  getBalance() */\n      jump\t// in\n    tag_35:\n        /* \"SendMoneyAddWithDraw.sol\":476:501  to.transfer(getBalance()) */\n      swap1\n      dup2\n      iszero\n      mul\n      swap1\n      mload(0x40)\n      0x00\n      mload(0x40)\n      dup1\n      dup4\n      sub\n      dup2\n      dup6\n      dup9\n      dup9\n      call\n      swap4\n      pop\n      pop\n      pop\n      pop\n      iszero\n      dup1\n      iszero\n      tag_37\n      jumpi\n      returndatasize\n      0x00\n      dup1\n      returndatacopy\n      revert(0x00, returndatasize)\n    tag_37:\n      pop\n        /* \"SendMoneyAddWithDraw.sol\":382:509  function withdrawMoney() public {\r... */\n      pop\n      jump\t// out\n        /* \"#utility.yul\":7:162   */\n    tag_39:\n      0x00\n        /* \"#utility.yul\":99:105   */\n      dup2\n        /* \"#utility.yul\":86:106   */\n      calldataload\n        /* \"#utility.yul\":77:106   */\n      swap1\n      pop\n        /* \"#utility.yul\":115:156   */\n      tag_41\n        /* \"#utility.yul\":150:155   */\n      dup2\n        /* \"#utility.yul\":115:156   */\n      tag_42\n      jump\t// in\n    tag_41:\n        /* \"#utility.yul\":67:162   */\n      swap3\n      swap2\n      pop\n      pop\n      jump\t// out\n        /* \"#utility.yul\":168:446   */\n    tag_10:\n      0x00\n        /* \"#utility.yul\":284:286   */\n      0x20\n        /* \"#utility.yul\":272:281   */\n      dup3\n        /* \"#utility.yul\":263:270   */\n      dup5\n        /* \"#utility.yul\":259:282   */\n      sub\n        /* \"#utility.yul\":255:287   */\n      slt\n        /* \"#utility.yul\":252:254   */\n      iszero\n      tag_44\n      jumpi\n        /* \"#utility.yul\":300:301   */\n      0x00\n        /* \"#utility.yul\":297:298   */\n      dup1\n        /* \"#utility.yul\":290:302   */\n      revert\n        /* \"#utility.yul\":252:254   */\n    tag_44:\n        /* \"#utility.yul\":343:344   */\n      0x00\n        /* \"#utility.yul\":368:429   */\n      tag_45\n        /* \"#utility.yul\":421:428   */\n      dup5\n        /* \"#utility.yul\":412:418   */\n      dup3\n        /* \"#utility.yul\":401:410   */\n      dup6\n        /* \"#utility.yul\":397:419   */\n      add\n        /* \"#utility.yul\":368:429   */\n      tag_39\n      jump\t// in\n    tag_45:\n        /* \"#utility.yul\":358:429   */\n      swap2\n      pop\n        /* \"#utility.yul\":314:439   */\n      pop\n        /* \"#utility.yul\":242:446   */\n      swap3\n      swap2\n      pop\n      pop\n      jump\t// out\n        /* \"#utility.yul\":452:570   */\n    tag_46:\n        /* \"#utility.yul\":539:563   */\n      tag_48\n        /* \"#utility.yul\":557:562   */\n      dup2\n        /* \"#utility.yul\":539:563   */\n      tag_49\n      jump\t// in\n    tag_48:\n        /* \"#utility.yul\":534:537   */\n      dup3\n        /* \"#utility.yul\":527:564   */\n      mstore\n        /* \"#utility.yul\":517:570   */\n      pop\n      pop\n      jump\t// out\n        /* \"#utility.yul\":576:798   */\n    tag_16:\n      0x00\n        /* \"#utility.yul\":707:709   */\n      0x20\n        /* \"#utility.yul\":696:705   */\n      dup3\n        /* \"#utility.yul\":692:710   */\n      add\n        /* \"#utility.yul\":684:710   */\n      swap1\n      pop\n        /* \"#utility.yul\":720:791   */\n      tag_51\n        /* \"#utility.yul\":788:789   */\n      0x00\n        /* \"#utility.yul\":777:786   */\n      dup4\n        /* \"#utility.yul\":773:790   */\n      add\n        /* \"#utility.yul\":764:770   */\n      dup5\n        /* \"#utility.yul\":720:791   */\n      tag_46\n      jump\t// in\n    tag_51:\n        /* \"#utility.yul\":674:798   */\n      swap3\n      swap2\n      pop\n      pop\n      jump\t// out\n        /* \"#utility.yul\":804:1109   */\n    tag_33:\n      0x00\n        /* \"#utility.yul\":863:883   */\n      tag_53\n        /* \"#utility.yul\":881:882   */\n      dup3\n        /* \"#utility.yul\":863:883   */\n      tag_49\n      jump\t// in\n    tag_53:\n        /* \"#utility.yul\":858:883   */\n      swap2\n      pop\n        /* \"#utility.yul\":897:917   */\n      tag_54\n        /* \"#utility.yul\":915:916   */\n      dup4\n        /* \"#utility.yul\":897:917   */\n      tag_49\n      jump\t// in\n    tag_54:\n        /* \"#utility.yul\":892:917   */\n      swap3\n      pop\n        /* \"#utility.yul\":1051:1052   */\n      dup3\n        /* \"#utility.yul\":983:1049   */\n      0xffffffffffffffffffffffffffffffffffffffffffffffffffffffffffffffff\n        /* \"#utility.yul\":979:1053   */\n      sub\n        /* \"#utility.yul\":976:977   */\n      dup3\n        /* \"#utility.yul\":973:1054   */\n      gt\n        /* \"#utility.yul\":970:972   */\n      iszero\n      tag_55\n      jumpi\n        /* \"#utility.yul\":1057:1075   */\n      tag_56\n      tag_57\n      jump\t// in\n    tag_56:\n        /* \"#utility.yul\":970:972   */\n    tag_55:\n        /* \"#utility.yul\":1101:1102   */\n      dup3\n        /* \"#utility.yul\":1098:1099   */\n      dup3\n        /* \"#utility.yul\":1094:1103   */\n      add\n        /* \"#utility.yul\":1087:1103   */\n      swap1\n      pop\n        /* \"#utility.yul\":848:1109   */\n      swap3\n      swap2\n      pop\n      pop\n      jump\t// out\n        /* \"#utility.yul\":1115:1219   */\n    tag_58:\n      0x00\n        /* \"#utility.yul\":1189:1213   */\n      tag_60\n        /* \"#utility.yul\":1207:1212   */\n      dup3\n        /* \"#utility.yul\":1189:1213   */\n      tag_61\n      jump\t// in\n    tag_60:\n        /* \"#utility.yul\":1178:1213   */\n      swap1\n      pop\n        /* \"#utility.yul\":1168:1219   */\n      swap2\n      swap1\n      pop\n      jump\t// out\n        /* \"#utility.yul\":1225:1351   */\n    tag_61:\n      0x00\n        /* \"#utility.yul\":1302:1344   */\n      0xffffffffffffffffffffffffffffffffffffffff\n        /* \"#utility.yul\":1295:1300   */\n      dup3\n        /* \"#utility.yul\":1291:1345   */\n      and\n        /* \"#utility.yul\":1280:1345   */\n      swap1\n      pop\n        /* \"#utility.yul\":1270:1351   */\n      swap2\n      swap1\n      pop\n      jump\t// out\n        /* \"#utility.yul\":1357:1434   */\n    tag_49:\n      0x00\n        /* \"#utility.yul\":1423:1428   */\n      dup2\n        /* \"#utility.yul\":1412:1428   */\n      swap1\n      pop\n        /* \"#utility.yul\":1402:1434   */\n      swap2\n      swap1\n      pop\n      jump\t// out\n        /* \"#utility.yul\":1440:1620   */\n    tag_57:\n        /* \"#utility.yul\":1488:1565   */\n      0x4e487b7100000000000000000000000000000000000000000000000000000000\n        /* \"#utility.yul\":1485:1486   */\n      0x00\n        /* \"#utility.yul\":1478:1566   */\n      mstore\n        /* \"#utility.yul\":1585:1589   */\n      0x11\n        /* \"#utility.yul\":1582:1583   */\n      0x04\n        /* \"#utility.yul\":1575:1590   */\n      mstore\n        /* \"#utility.yul\":1609:1613   */\n      0x24\n        /* \"#utility.yul\":1606:1607   */\n      0x00\n        /* \"#utility.yul\":1599:1614   */\n      revert\n        /* \"#utility.yul\":1626:1764   */\n    tag_42:\n        /* \"#utility.yul\":1707:1739   */\n      tag_66\n        /* \"#utility.yul\":1733:1738   */\n      dup2\n        /* \"#utility.yul\":1707:1739   */\n      tag_58\n      jump\t// in\n    tag_66:\n        /* \"#utility.yul\":1700:1705   */\n      dup2\n        /* \"#utility.yul\":1697:1740   */\n      eq\n        /* \"#utility.yul\":1687:1689   */\n      tag_67\n      jumpi\n        /* \"#utility.yul\":1754:1755   */\n      0x00\n        /* \"#utility.yul\":1751:1752   */\n      dup1\n        /* \"#utility.yul\":1744:1756   */\n      revert\n        /* \"#utility.yul\":1687:1689   */\n    tag_67:\n        /* \"#utility.yul\":1677:1764   */\n      pop\n      jump\t// out\n\n    auxdata: 0xa2646970667358221220810e3f8471ac3e6610514a5926af5999e8e79c1e16b876030ac0b9738dcae37364736f6c63430008010033\n}\n",
				"bytecode": {
					"linkReferences": {},
					"object": "608060405234801561001057600080fd5b50610334806100206000396000f3fe60806040526004361061004a5760003560e01c80630ff8d8a51461004f57806312065fe01461007857806352a90c42146100a35780636d26ec18146100ce578063ac446002146100d8575b600080fd5b34801561005b57600080fd5b50610076600480360381019061007191906101d3565b6100ef565b005b34801561008457600080fd5b5061008d610140565b60405161009a919061020b565b60405180910390f35b3480156100af57600080fd5b506100b8610148565b6040516100c5919061020b565b60405180910390f35b6100d661014e565b005b3480156100e457600080fd5b506100ed610168565b005b8073ffffffffffffffffffffffffffffffffffffffff166108fc610111610140565b9081150290604051600060405180830381858888f1935050505015801561013c573d6000803e3d6000fd5b5050565b600047905090565b60005481565b3460008082825461015f9190610226565b92505081905550565b60003390508073ffffffffffffffffffffffffffffffffffffffff166108fc61018f610140565b9081150290604051600060405180830381858888f193505050501580156101ba573d6000803e3d6000fd5b5050565b6000813590506101cd816102e7565b92915050565b6000602082840312156101e557600080fd5b60006101f3848285016101be565b91505092915050565b610205816102ae565b82525050565b600060208201905061022060008301846101fc565b92915050565b6000610231826102ae565b915061023c836102ae565b9250827fffffffffffffffffffffffffffffffffffffffffffffffffffffffffffffffff03821115610271576102706102b8565b5b828201905092915050565b60006102878261028e565b9050919050565b600073ffffffffffffffffffffffffffffffffffffffff82169050919050565b6000819050919050565b7f4e487b7100000000000000000000000000000000000000000000000000000000600052601160045260246000fd5b6102f08161027c565b81146102fb57600080fd5b5056fea2646970667358221220810e3f8471ac3e6610514a5926af5999e8e79c1e16b876030ac0b9738dcae37364736f6c63430008010033",
					"opcodes": "PUSH1 0x80 PUSH1 0x40 MSTORE CALLVALUE DUP1 ISZERO PUSH2 0x10 JUMPI PUSH1 0x0 DUP1 REVERT JUMPDEST POP PUSH2 0x334 DUP1 PUSH2 0x20 PUSH1 0x0 CODECOPY PUSH1 0x0 RETURN INVALID PUSH1 0x80 PUSH1 0x40 MSTORE PUSH1 0x4 CALLDATASIZE LT PUSH2 0x4A JUMPI PUSH1 0x0 CALLDATALOAD PUSH1 0xE0 SHR DUP1 PUSH4 0xFF8D8A5 EQ PUSH2 0x4F JUMPI DUP1 PUSH4 0x12065FE0 EQ PUSH2 0x78 JUMPI DUP1 PUSH4 0x52A90C42 EQ PUSH2 0xA3 JUMPI DUP1 PUSH4 0x6D26EC18 EQ PUSH2 0xCE JUMPI DUP1 PUSH4 0xAC446002 EQ PUSH2 0xD8 JUMPI JUMPDEST PUSH1 0x0 DUP1 REVERT JUMPDEST CALLVALUE DUP1 ISZERO PUSH2 0x5B JUMPI PUSH1 0x0 DUP1 REVERT JUMPDEST POP PUSH2 0x76 PUSH1 0x4 DUP1 CALLDATASIZE SUB DUP2 ADD SWAP1 PUSH2 0x71 SWAP2 SWAP1 PUSH2 0x1D3 JUMP JUMPDEST PUSH2 0xEF JUMP JUMPDEST STOP JUMPDEST CALLVALUE DUP1 ISZERO PUSH2 0x84 JUMPI PUSH1 0x0 DUP1 REVERT JUMPDEST POP PUSH2 0x8D PUSH2 0x140 JUMP JUMPDEST PUSH1 0x40 MLOAD PUSH2 0x9A SWAP2 SWAP1 PUSH2 0x20B JUMP JUMPDEST PUSH1 0x40 MLOAD DUP1 SWAP2 SUB SWAP1 RETURN JUMPDEST CALLVALUE DUP1 ISZERO PUSH2 0xAF JUMPI PUSH1 0x0 DUP1 REVERT JUMPDEST POP PUSH2 0xB8 PUSH2 0x148 JUMP JUMPDEST PUSH1 0x40 MLOAD PUSH2 0xC5 SWAP2 SWAP1 PUSH2 0x20B JUMP JUMPDEST PUSH1 0x40 MLOAD DUP1 SWAP2 SUB SWAP1 RETURN JUMPDEST PUSH2 0xD6 PUSH2 0x14E JUMP JUMPDEST STOP JUMPDEST CALLVALUE DUP1 ISZERO PUSH2 0xE4 JUMPI PUSH1 0x0 DUP1 REVERT JUMPDEST POP PUSH2 0xED PUSH2 0x168 JUMP JUMPDEST STOP JUMPDEST DUP1 PUSH20 0xFFFFFFFFFFFFFFFFFFFFFFFFFFFFFFFFFFFFFFFF AND PUSH2 0x8FC PUSH2 0x111 PUSH2 0x140 JUMP JUMPDEST SWAP1 DUP2 ISZERO MUL SWAP1 PUSH1 0x40 MLOAD PUSH1 0x0 PUSH1 0x40 MLOAD DUP1 DUP4 SUB DUP2 DUP6 DUP9 DUP9 CALL SWAP4 POP POP POP POP ISZERO DUP1 ISZERO PUSH2 0x13C JUMPI RETURNDATASIZE PUSH1 0x0 DUP1 RETURNDATACOPY RETURNDATASIZE PUSH1 0x0 REVERT JUMPDEST POP POP JUMP JUMPDEST PUSH1 0x0 SELFBALANCE SWAP1 POP SWAP1 JUMP JUMPDEST PUSH1 0x0 SLOAD DUP2 JUMP JUMPDEST CALLVALUE PUSH1 0x0 DUP1 DUP3 DUP3 SLOAD PUSH2 0x15F SWAP2 SWAP1 PUSH2 0x226 JUMP JUMPDEST SWAP3 POP POP DUP2 SWAP1 SSTORE POP JUMP JUMPDEST PUSH1 0x0 CALLER SWAP1 POP DUP1 PUSH20 0xFFFFFFFFFFFFFFFFFFFFFFFFFFFFFFFFFFFFFFFF AND PUSH2 0x8FC PUSH2 0x18F PUSH2 0x140 JUMP JUMPDEST SWAP1 DUP2 ISZERO MUL SWAP1 PUSH1 0x40 MLOAD PUSH1 0x0 PUSH1 0x40 MLOAD DUP1 DUP4 SUB DUP2 DUP6 DUP9 DUP9 CALL SWAP4 POP POP POP POP ISZERO DUP1 ISZERO PUSH2 0x1BA JUMPI RETURNDATASIZE PUSH1 0x0 DUP1 RETURNDATACOPY RETURNDATASIZE PUSH1 0x0 REVERT JUMPDEST POP POP JUMP JUMPDEST PUSH1 0x0 DUP2 CALLDATALOAD SWAP1 POP PUSH2 0x1CD DUP2 PUSH2 0x2E7 JUMP JUMPDEST SWAP3 SWAP2 POP POP JUMP JUMPDEST PUSH1 0x0 PUSH1 0x20 DUP3 DUP5 SUB SLT ISZERO PUSH2 0x1E5 JUMPI PUSH1 0x0 DUP1 REVERT JUMPDEST PUSH1 0x0 PUSH2 0x1F3 DUP5 DUP3 DUP6 ADD PUSH2 0x1BE JUMP JUMPDEST SWAP2 POP POP SWAP3 SWAP2 POP POP JUMP JUMPDEST PUSH2 0x205 DUP2 PUSH2 0x2AE JUMP JUMPDEST DUP3 MSTORE POP POP JUMP JUMPDEST PUSH1 0x0 PUSH1 0x20 DUP3 ADD SWAP1 POP PUSH2 0x220 PUSH1 0x0 DUP4 ADD DUP5 PUSH2 0x1FC JUMP JUMPDEST SWAP3 SWAP2 POP POP JUMP JUMPDEST PUSH1 0x0 PUSH2 0x231 DUP3 PUSH2 0x2AE JUMP JUMPDEST SWAP2 POP PUSH2 0x23C DUP4 PUSH2 0x2AE JUMP JUMPDEST SWAP3 POP DUP3 PUSH32 0xFFFFFFFFFFFFFFFFFFFFFFFFFFFFFFFFFFFFFFFFFFFFFFFFFFFFFFFFFFFFFFFF SUB DUP3 GT ISZERO PUSH2 0x271 JUMPI PUSH2 0x270 PUSH2 0x2B8 JUMP JUMPDEST JUMPDEST DUP3 DUP3 ADD SWAP1 POP SWAP3 SWAP2 POP POP JUMP JUMPDEST PUSH1 0x0 PUSH2 0x287 DUP3 PUSH2 0x28E JUMP JUMPDEST SWAP1 POP SWAP2 SWAP1 POP JUMP JUMPDEST PUSH1 0x0 PUSH20 0xFFFFFFFFFFFFFFFFFFFFFFFFFFFFFFFFFFFFFFFF DUP3 AND SWAP1 POP SWAP2 SWAP1 POP JUMP JUMPDEST PUSH1 0x0 DUP2 SWAP1 POP SWAP2 SWAP1 POP JUMP JUMPDEST PUSH32 0x4E487B7100000000000000000000000000000000000000000000000000000000 PUSH1 0x0 MSTORE PUSH1 0x11 PUSH1 0x4 MSTORE PUSH1 0x24 PUSH1 0x0 REVERT JUMPDEST PUSH2 0x2F0 DUP2 PUSH2 0x27C JUMP JUMPDEST DUP2 EQ PUSH2 0x2FB JUMPI PUSH1 0x0 DUP1 REVERT JUMPDEST POP JUMP INVALID LOG2 PUSH5 0x6970667358 0x22 SLT KECCAK256 DUP2 0xE EXTCODEHASH DUP5 PUSH18 0xAC3E6610514A5926AF5999E8E79C1E16B876 SUB EXP 0xC0 0xB9 PUSH20 0x8DCAE37364736F6C634300080100330000000000 "
				},
				"gasEstimates": {
					"creation": {
						"codeDepositCost": "164000",
						"executionCost": "208",
						"totalCost": "164208"
					},
					"external": {
						"balanceReceived()": "1151",
						"getBalance()": "339",
						"receiveMoney()": "infinite",
						"withdrawMoney()": "infinite",
						"withdrawMoneyTo(address)": "infinite"
					}
				},
				"methodIdentifiers": {
					"balanceReceived()": "52a90c42",
					"getBalance()": "12065fe0",
					"receiveMoney()": "6d26ec18",
					"withdrawMoney()": "ac446002",
					"withdrawMoneyTo(address)": "0ff8d8a5"
				}
			},
			"storageLayout": {
				"storage": [
					{
						"astId": 3,
						"contract": "SendMoneyAddWithDraw.sol:SendMoneyExample",
						"label": "balanceReceived",
						"offset": 0,
						"slot": "0",
						"type": "t_uint256"
					}
				],
				"types": {
					"t_uint256": {
						"encoding": "inplace",
						"label": "uint256",
						"numberOfBytes": "32"
					}
				}
			},
			"userdoc": {
				"kind": "user",
				"methods": {},
				"version": 1
			}
		}
	}
}