{
	"ExtendedSendMoneyAddWithDrawSpecificAcc.sol": {
		"SendMoneyExample": {
			"abi": [
				{
					"inputs": [],
					"name": "balanceReceived",
					"outputs": [
						{
							"internalType": "uint256",
							"name": "",
							"type": "uint256"
						}
					],
					"stateMutability": "view",
					"type": "function"
				},
				{
					"inputs": [],
					"name": "getBalance",
					"outputs": [
						{
							"internalType": "uint256",
							"name": "",
							"type": "uint256"
						}
					],
					"stateMutability": "view",
					"type": "function"
				},
				{
					"inputs": [],
					"name": "lockedUntil",
					"outputs": [
						{
							"internalType": "uint256",
							"name": "",
							"type": "uint256"
						}
					],
					"stateMutability": "view",
					"type": "function"
				},
				{
					"inputs": [],
					"name": "receiveMoney",
					"outputs": [],
					"stateMutability": "payable",
					"type": "function"
				},
				{
					"inputs": [],
					"name": "withdrawMoney",
					"outputs": [],
					"stateMutability": "nonpayable",
					"type": "function"
				},
				{
					"inputs": [
						{
							"internalType": "address payable",
							"name": "_to",
							"type": "address"
						}
					],
					"name": "withdrawMoneyTo",
					"outputs": [],
					"stateMutability": "nonpayable",
					"type": "function"
				}
			],
			"devdoc": {
				"kind": "dev",
				"methods": {},
				"version": 1
			},
			"evm": {
				"assembly": "    /* \"ExtendedSendMoneyAddWithDrawSpecificAcc.sol\":102:766  contract SendMoneyExample {\r... */\n  mstore(0x40, 0x80)\n  callvalue\n  dup1\n  iszero\n  tag_1\n  jumpi\n  0x00\n  dup1\n  revert\ntag_1:\n  pop\n  dataSize(sub_0)\n  dup1\n  dataOffset(sub_0)\n  0x00\n  codecopy\n  0x00\n  return\nstop\n\nsub_0: assembly {\n        /* \"ExtendedSendMoneyAddWithDrawSpecificAcc.sol\":102:766  contract SendMoneyExample {\r... */\n      mstore(0x40, 0x80)\n      jumpi(tag_1, lt(calldatasize, 0x04))\n      shr(0xe0, calldataload(0x00))\n      dup1\n      0x0ff8d8a5\n      eq\n      tag_2\n      jumpi\n      dup1\n      0x12065fe0\n      eq\n      tag_3\n      jumpi\n      dup1\n      0x52a90c42\n      eq\n      tag_4\n      jumpi\n      dup1\n      0x6d26ec18\n      eq\n      tag_5\n      jumpi\n      dup1\n      0xac446002\n      eq\n      tag_6\n      jumpi\n      dup1\n      0xce0617ec\n      eq\n      tag_7\n      jumpi\n    tag_1:\n      0x00\n      dup1\n      revert\n        /* \"ExtendedSendMoneyAddWithDrawSpecificAcc.sol\":665:763  function withdrawMoneyTo(address payable _to) public {\r... */\n    tag_2:\n      callvalue\n      dup1\n      iszero\n      tag_8\n      jumpi\n      0x00\n      dup1\n      revert\n    tag_8:\n      pop\n      tag_9\n      0x04\n      dup1\n      calldatasize\n      sub\n      dup2\n      add\n      swap1\n      tag_10\n      swap2\n      swap1\n      tag_11\n      jump\t// in\n    tag_10:\n      tag_12\n      jump\t// in\n    tag_9:\n      stop\n        /* \"ExtendedSendMoneyAddWithDrawSpecificAcc.sol\":357:452  function getBalance() public view returns(uint) {\r... */\n    tag_3:\n      callvalue\n      dup1\n      iszero\n      tag_13\n      jumpi\n      0x00\n      dup1\n      revert\n    tag_13:\n      pop\n      tag_14\n      tag_15\n      jump\t// in\n    tag_14:\n      mload(0x40)\n      tag_16\n      swap2\n      swap1\n      tag_17\n      jump\t// in\n    tag_16:\n      mload(0x40)\n      dup1\n      swap2\n      sub\n      swap1\n      return\n        /* \"ExtendedSendMoneyAddWithDrawSpecificAcc.sol\":137:164  uint public balanceReceived */\n    tag_4:\n      callvalue\n      dup1\n      iszero\n      tag_18\n      jumpi\n      0x00\n      dup1\n      revert\n    tag_18:\n      pop\n      tag_19\n      tag_20\n      jump\t// in\n    tag_19:\n      mload(0x40)\n      tag_21\n      swap2\n      swap1\n      tag_17\n      jump\t// in\n    tag_21:\n      mload(0x40)\n      dup1\n      swap2\n      sub\n      swap1\n      return\n        /* \"ExtendedSendMoneyAddWithDrawSpecificAcc.sol\":203:341  function receiveMoney() public payable {\r... */\n    tag_5:\n      tag_22\n      tag_23\n      jump\t// in\n    tag_22:\n      stop\n        /* \"ExtendedSendMoneyAddWithDrawSpecificAcc.sol\":460:651  function withdrawMoney() public {\r... */\n    tag_6:\n      callvalue\n      dup1\n      iszero\n      tag_24\n      jumpi\n      0x00\n      dup1\n      revert\n    tag_24:\n      pop\n      tag_25\n      tag_26\n      jump\t// in\n    tag_25:\n      stop\n        /* \"ExtendedSendMoneyAddWithDrawSpecificAcc.sol\":171:194  uint public lockedUntil */\n    tag_7:\n      callvalue\n      dup1\n      iszero\n      tag_27\n      jumpi\n      0x00\n      dup1\n      revert\n    tag_27:\n      pop\n      tag_28\n      tag_29\n      jump\t// in\n    tag_28:\n      mload(0x40)\n      tag_30\n      swap2\n      swap1\n      tag_17\n      jump\t// in\n    tag_30:\n      mload(0x40)\n      dup1\n      swap2\n      sub\n      swap1\n      return\n        /* \"ExtendedSendMoneyAddWithDrawSpecificAcc.sol\":665:763  function withdrawMoneyTo(address payable _to) public {\r... */\n    tag_12:\n        /* \"ExtendedSendMoneyAddWithDrawSpecificAcc.sol\":729:732  _to */\n      dup1\n        /* \"ExtendedSendMoneyAddWithDrawSpecificAcc.sol\":729:741  _to.transfer */\n      0xffffffffffffffffffffffffffffffffffffffff\n      and\n        /* \"ExtendedSendMoneyAddWithDrawSpecificAcc.sol\":729:755  _to.transfer(getBalance()) */\n      0x08fc\n        /* \"ExtendedSendMoneyAddWithDrawSpecificAcc.sol\":742:754  getBalance() */\n      tag_32\n        /* \"ExtendedSendMoneyAddWithDrawSpecificAcc.sol\":742:752  getBalance */\n      tag_15\n        /* \"ExtendedSendMoneyAddWithDrawSpecificAcc.sol\":742:754  getBalance() */\n      jump\t// in\n    tag_32:\n        /* \"ExtendedSendMoneyAddWithDrawSpecificAcc.sol\":729:755  _to.transfer(getBalance()) */\n      swap1\n      dup2\n      iszero\n      mul\n      swap1\n      mload(0x40)\n      0x00\n      mload(0x40)\n      dup1\n      dup4\n      sub\n      dup2\n      dup6\n      dup9\n      dup9\n      call\n      swap4\n      pop\n      pop\n      pop\n      pop\n      iszero\n      dup1\n      iszero\n      tag_34\n      jumpi\n      returndatasize\n      0x00\n      dup1\n      returndatacopy\n      revert(0x00, returndatasize)\n    tag_34:\n      pop\n        /* \"ExtendedSendMoneyAddWithDrawSpecificAcc.sol\":665:763  function withdrawMoneyTo(address payable _to) public {\r... */\n      pop\n      jump\t// out\n        /* \"ExtendedSendMoneyAddWithDrawSpecificAcc.sol\":357:452  function getBalance() public view returns(uint) {\r... */\n    tag_15:\n        /* \"ExtendedSendMoneyAddWithDrawSpecificAcc.sol\":399:403  uint */\n      0x00\n        /* \"ExtendedSendMoneyAddWithDrawSpecificAcc.sol\":423:444  address(this).balance */\n      selfbalance\n        /* \"ExtendedSendMoneyAddWithDrawSpecificAcc.sol\":416:444  return address(this).balance */\n      swap1\n      pop\n        /* \"ExtendedSendMoneyAddWithDrawSpecificAcc.sol\":357:452  function getBalance() public view returns(uint) {\r... */\n      swap1\n      jump\t// out\n        /* \"ExtendedSendMoneyAddWithDrawSpecificAcc.sol\":137:164  uint public balanceReceived */\n    tag_20:\n      sload(0x00)\n      dup2\n      jump\t// out\n        /* \"ExtendedSendMoneyAddWithDrawSpecificAcc.sol\":203:341  function receiveMoney() public payable {\r... */\n    tag_23:\n        /* \"ExtendedSendMoneyAddWithDrawSpecificAcc.sol\":272:281  msg.value */\n      callvalue\n        /* \"ExtendedSendMoneyAddWithDrawSpecificAcc.sol\":253:268  balanceReceived */\n      0x00\n      dup1\n        /* \"ExtendedSendMoneyAddWithDrawSpecificAcc.sol\":253:281  balanceReceived += msg.value */\n      dup3\n      dup3\n      sload\n      tag_37\n      swap2\n      swap1\n      tag_38\n      jump\t// in\n    tag_37:\n      swap3\n      pop\n      pop\n      dup2\n      swap1\n      sstore\n      pop\n        /* \"ExtendedSendMoneyAddWithDrawSpecificAcc.sol\":324:333  1 minutes */\n      0x3c\n        /* \"ExtendedSendMoneyAddWithDrawSpecificAcc.sol\":306:321  block.timestamp */\n      timestamp\n        /* \"ExtendedSendMoneyAddWithDrawSpecificAcc.sol\":306:333  block.timestamp + 1 minutes */\n      tag_39\n      swap2\n      swap1\n      tag_38\n      jump\t// in\n    tag_39:\n        /* \"ExtendedSendMoneyAddWithDrawSpecificAcc.sol\":292:303  lockedUntil */\n      0x01\n        /* \"ExtendedSendMoneyAddWithDrawSpecificAcc.sol\":292:333  lockedUntil = block.timestamp + 1 minutes */\n      dup2\n      swap1\n      sstore\n      pop\n        /* \"ExtendedSendMoneyAddWithDrawSpecificAcc.sol\":203:341  function receiveMoney() public payable {\r... */\n      jump\t// out\n        /* \"ExtendedSendMoneyAddWithDrawSpecificAcc.sol\":460:651  function withdrawMoney() public {\r... */\n    tag_26:\n        /* \"ExtendedSendMoneyAddWithDrawSpecificAcc.sol\":520:535  block.timestamp */\n      timestamp\n        /* \"ExtendedSendMoneyAddWithDrawSpecificAcc.sol\":506:517  lockedUntil */\n      sload(0x01)\n        /* \"ExtendedSendMoneyAddWithDrawSpecificAcc.sol\":506:535  lockedUntil < block.timestamp */\n      lt\n        /* \"ExtendedSendMoneyAddWithDrawSpecificAcc.sol\":503:644  if(lockedUntil < block.timestamp) {\r... */\n      iszero\n      tag_41\n      jumpi\n        /* \"ExtendedSendMoneyAddWithDrawSpecificAcc.sol\":552:570  address payable to */\n      0x00\n        /* \"ExtendedSendMoneyAddWithDrawSpecificAcc.sol\":581:591  msg.sender */\n      caller\n        /* \"ExtendedSendMoneyAddWithDrawSpecificAcc.sol\":552:592  address payable to = payable(msg.sender) */\n      swap1\n      pop\n        /* \"ExtendedSendMoneyAddWithDrawSpecificAcc.sol\":607:609  to */\n      dup1\n        /* \"ExtendedSendMoneyAddWithDrawSpecificAcc.sol\":607:618  to.transfer */\n      0xffffffffffffffffffffffffffffffffffffffff\n      and\n        /* \"ExtendedSendMoneyAddWithDrawSpecificAcc.sol\":607:632  to.transfer(getBalance()) */\n      0x08fc\n        /* \"ExtendedSendMoneyAddWithDrawSpecificAcc.sol\":619:631  getBalance() */\n      tag_42\n        /* \"ExtendedSendMoneyAddWithDrawSpecificAcc.sol\":619:629  getBalance */\n      tag_15\n        /* \"ExtendedSendMoneyAddWithDrawSpecificAcc.sol\":619:631  getBalance() */\n      jump\t// in\n    tag_42:\n        /* \"ExtendedSendMoneyAddWithDrawSpecificAcc.sol\":607:632  to.transfer(getBalance()) */\n      swap1\n      dup2\n      iszero\n      mul\n      swap1\n      mload(0x40)\n      0x00\n      mload(0x40)\n      dup1\n      dup4\n      sub\n      dup2\n      dup6\n      dup9\n      dup9\n      call\n      swap4\n      pop\n      pop\n      pop\n      pop\n      iszero\n      dup1\n      iszero\n      tag_44\n      jumpi\n      returndatasize\n      0x00\n      dup1\n      returndatacopy\n      revert(0x00, returndatasize)\n    tag_44:\n      pop\n        /* \"ExtendedSendMoneyAddWithDrawSpecificAcc.sol\":503:644  if(lockedUntil < block.timestamp) {\r... */\n      pop\n    tag_41:\n        /* \"ExtendedSendMoneyAddWithDrawSpecificAcc.sol\":460:651  function withdrawMoney() public {\r... */\n      jump\t// out\n        /* \"ExtendedSendMoneyAddWithDrawSpecificAcc.sol\":171:194  uint public lockedUntil */\n    tag_29:\n      sload(0x01)\n      dup2\n      jump\t// out\n        /* \"#utility.yul\":7:162   */\n    tag_46:\n      0x00\n        /* \"#utility.yul\":99:105   */\n      dup2\n        /* \"#utility.yul\":86:106   */\n      calldataload\n        /* \"#utility.yul\":77:106   */\n      swap1\n      pop\n        /* \"#utility.yul\":115:156   */\n      tag_48\n        /* \"#utility.yul\":150:155   */\n      dup2\n        /* \"#utility.yul\":115:156   */\n      tag_49\n      jump\t// in\n    tag_48:\n        /* \"#utility.yul\":67:162   */\n      swap3\n      swap2\n      pop\n      pop\n      jump\t// out\n        /* \"#utility.yul\":168:446   */\n    tag_11:\n      0x00\n        /* \"#utility.yul\":284:286   */\n      0x20\n        /* \"#utility.yul\":272:281   */\n      dup3\n        /* \"#utility.yul\":263:270   */\n      dup5\n        /* \"#utility.yul\":259:282   */\n      sub\n        /* \"#utility.yul\":255:287   */\n      slt\n        /* \"#utility.yul\":252:254   */\n      iszero\n      tag_51\n      jumpi\n        /* \"#utility.yul\":300:301   */\n      0x00\n        /* \"#utility.yul\":297:298   */\n      dup1\n        /* \"#utility.yul\":290:302   */\n      revert\n        /* \"#utility.yul\":252:254   */\n    tag_51:\n        /* \"#utility.yul\":343:344   */\n      0x00\n        /* \"#utility.yul\":368:429   */\n      tag_52\n        /* \"#utility.yul\":421:428   */\n      dup5\n        /* \"#utility.yul\":412:418   */\n      dup3\n        /* \"#utility.yul\":401:410   */\n      dup6\n        /* \"#utility.yul\":397:419   */\n      add\n        /* \"#utility.yul\":368:429   */\n      tag_46\n      jump\t// in\n    tag_52:\n        /* \"#utility.yul\":358:429   */\n      swap2\n      pop\n        /* \"#utility.yul\":314:439   */\n      pop\n        /* \"#utility.yul\":242:446   */\n      swap3\n      swap2\n      pop\n      pop\n      jump\t// out\n        /* \"#utility.yul\":452:570   */\n    tag_53:\n        /* \"#utility.yul\":539:563   */\n      tag_55\n        /* \"#utility.yul\":557:562   */\n      dup2\n        /* \"#utility.yul\":539:563   */\n      tag_56\n      jump\t// in\n    tag_55:\n        /* \"#utility.yul\":534:537   */\n      dup3\n        /* \"#utility.yul\":527:564   */\n      mstore\n        /* \"#utility.yul\":517:570   */\n      pop\n      pop\n      jump\t// out\n        /* \"#utility.yul\":576:798   */\n    tag_17:\n      0x00\n        /* \"#utility.yul\":707:709   */\n      0x20\n        /* \"#utility.yul\":696:705   */\n      dup3\n        /* \"#utility.yul\":692:710   */\n      add\n        /* \"#utility.yul\":684:710   */\n      swap1\n      pop\n        /* \"#utility.yul\":720:791   */\n      tag_58\n        /* \"#utility.yul\":788:789   */\n      0x00\n        /* \"#utility.yul\":777:786   */\n      dup4\n        /* \"#utility.yul\":773:790   */\n      add\n        /* \"#utility.yul\":764:770   */\n      dup5\n        /* \"#utility.yul\":720:791   */\n      tag_53\n      jump\t// in\n    tag_58:\n        /* \"#utility.yul\":674:798   */\n      swap3\n      swap2\n      pop\n      pop\n      jump\t// out\n        /* \"#utility.yul\":804:1109   */\n    tag_38:\n      0x00\n        /* \"#utility.yul\":863:883   */\n      tag_60\n        /* \"#utility.yul\":881:882   */\n      dup3\n        /* \"#utility.yul\":863:883   */\n      tag_56\n      jump\t// in\n    tag_60:\n        /* \"#utility.yul\":858:883   */\n      swap2\n      pop\n        /* \"#utility.yul\":897:917   */\n      tag_61\n        /* \"#utility.yul\":915:916   */\n      dup4\n        /* \"#utility.yul\":897:917   */\n      tag_56\n      jump\t// in\n    tag_61:\n        /* \"#utility.yul\":892:917   */\n      swap3\n      pop\n        /* \"#utility.yul\":1051:1052   */\n      dup3\n        /* \"#utility.yul\":983:1049   */\n      0xffffffffffffffffffffffffffffffffffffffffffffffffffffffffffffffff\n        /* \"#utility.yul\":979:1053   */\n      sub\n        /* \"#utility.yul\":976:977   */\n      dup3\n        /* \"#utility.yul\":973:1054   */\n      gt\n        /* \"#utility.yul\":970:972   */\n      iszero\n      tag_62\n      jumpi\n        /* \"#utility.yul\":1057:1075   */\n      tag_63\n      tag_64\n      jump\t// in\n    tag_63:\n        /* \"#utility.yul\":970:972   */\n    tag_62:\n        /* \"#utility.yul\":1101:1102   */\n      dup3\n        /* \"#utility.yul\":1098:1099   */\n      dup3\n        /* \"#utility.yul\":1094:1103   */\n      add\n        /* \"#utility.yul\":1087:1103   */\n      swap1\n      pop\n        /* \"#utility.yul\":848:1109   */\n      swap3\n      swap2\n      pop\n      pop\n      jump\t// out\n        /* \"#utility.yul\":1115:1219   */\n    tag_65:\n      0x00\n        /* \"#utility.yul\":1189:1213   */\n      tag_67\n        /* \"#utility.yul\":1207:1212   */\n      dup3\n        /* \"#utility.yul\":1189:1213   */\n      tag_68\n      jump\t// in\n    tag_67:\n        /* \"#utility.yul\":1178:1213   */\n      swap1\n      pop\n        /* \"#utility.yul\":1168:1219   */\n      swap2\n      swap1\n      pop\n      jump\t// out\n        /* \"#utility.yul\":1225:1351   */\n    tag_68:\n      0x00\n        /* \"#utility.yul\":1302:1344   */\n      0xffffffffffffffffffffffffffffffffffffffff\n        /* \"#utility.yul\":1295:1300   */\n      dup3\n        /* \"#utility.yul\":1291:1345   */\n      and\n        /* \"#utility.yul\":1280:1345   */\n      swap1\n      pop\n        /* \"#utility.yul\":1270:1351   */\n      swap2\n      swap1\n      pop\n      jump\t// out\n        /* \"#utility.yul\":1357:1434   */\n    tag_56:\n      0x00\n        /* \"#utility.yul\":1423:1428   */\n      dup2\n        /* \"#utility.yul\":1412:1428   */\n      swap1\n      pop\n        /* \"#utility.yul\":1402:1434   */\n      swap2\n      swap1\n      pop\n      jump\t// out\n        /* \"#utility.yul\":1440:1620   */\n    tag_64:\n        /* \"#utility.yul\":1488:1565   */\n      0x4e487b7100000000000000000000000000000000000000000000000000000000\n        /* \"#utility.yul\":1485:1486   */\n      0x00\n        /* \"#utility.yul\":1478:1566   */\n      mstore\n        /* \"#utility.yul\":1585:1589   */\n      0x11\n        /* \"#utility.yul\":1582:1583   */\n      0x04\n        /* \"#utility.yul\":1575:1590   */\n      mstore\n        /* \"#utility.yul\":1609:1613   */\n      0x24\n        /* \"#utility.yul\":1606:1607   */\n      0x00\n        /* \"#utility.yul\":1599:1614   */\n      revert\n        /* \"#utility.yul\":1626:1764   */\n    tag_49:\n        /* \"#utility.yul\":1707:1739   */\n      tag_73\n        /* \"#utility.yul\":1733:1738   */\n      dup2\n        /* \"#utility.yul\":1707:1739   */\n      tag_65\n      jump\t// in\n    tag_73:\n        /* \"#utility.yul\":1700:1705   */\n      dup2\n        /* \"#utility.yul\":1697:1740   */\n      eq\n        /* \"#utility.yul\":1687:1689   */\n      tag_74\n      jumpi\n        /* \"#utility.yul\":1754:1755   */\n      0x00\n        /* \"#utility.yul\":1751:1752   */\n      dup1\n        /* \"#utility.yul\":1744:1756   */\n      revert\n        /* \"#utility.yul\":1687:1689   */\n    tag_74:\n        /* \"#utility.yul\":1677:1764   */\n      pop\n      jump\t// out\n\n    auxdata: 0xa2646970667358221220556b56f9d4e58b9c7ead47c508cd9b4bff3796f875a7ca448c0ef30e381e2e5d64736f6c63430008010033\n}\n",
				"bytecode": {
					"linkReferences": {},
					"object": "608060405234801561001057600080fd5b5061038e806100206000396000f3fe6080604052600436106100555760003560e01c80630ff8d8a51461005a57806312065fe01461008357806352a90c42146100ae5780636d26ec18146100d9578063ac446002146100e3578063ce0617ec146100fa575b600080fd5b34801561006657600080fd5b50610081600480360381019061007c919061022d565b610125565b005b34801561008f57600080fd5b50610098610176565b6040516100a59190610265565b60405180910390f35b3480156100ba57600080fd5b506100c361017e565b6040516100d09190610265565b60405180910390f35b6100e1610184565b005b3480156100ef57600080fd5b506100f86101b1565b005b34801561010657600080fd5b5061010f610212565b60405161011c9190610265565b60405180910390f35b8073ffffffffffffffffffffffffffffffffffffffff166108fc610147610176565b9081150290604051600060405180830381858888f19350505050158015610172573d6000803e3d6000fd5b5050565b600047905090565b60005481565b346000808282546101959190610280565b92505081905550603c426101a99190610280565b600181905550565b4260015410156102105760003390508073ffffffffffffffffffffffffffffffffffffffff166108fc6101e2610176565b9081150290604051600060405180830381858888f1935050505015801561020d573d6000803e3d6000fd5b50505b565b60015481565b60008135905061022781610341565b92915050565b60006020828403121561023f57600080fd5b600061024d84828501610218565b91505092915050565b61025f81610308565b82525050565b600060208201905061027a6000830184610256565b92915050565b600061028b82610308565b915061029683610308565b9250827fffffffffffffffffffffffffffffffffffffffffffffffffffffffffffffffff038211156102cb576102ca610312565b5b828201905092915050565b60006102e1826102e8565b9050919050565b600073ffffffffffffffffffffffffffffffffffffffff82169050919050565b6000819050919050565b7f4e487b7100000000000000000000000000000000000000000000000000000000600052601160045260246000fd5b61034a816102d6565b811461035557600080fd5b5056fea2646970667358221220556b56f9d4e58b9c7ead47c508cd9b4bff3796f875a7ca448c0ef30e381e2e5d64736f6c63430008010033",
					"opcodes": "PUSH1 0x80 PUSH1 0x40 MSTORE CALLVALUE DUP1 ISZERO PUSH2 0x10 JUMPI PUSH1 0x0 DUP1 REVERT JUMPDEST POP PUSH2 0x38E DUP1 PUSH2 0x20 PUSH1 0x0 CODECOPY PUSH1 0x0 RETURN INVALID PUSH1 0x80 PUSH1 0x40 MSTORE PUSH1 0x4 CALLDATASIZE LT PUSH2 0x55 JUMPI PUSH1 0x0 CALLDATALOAD PUSH1 0xE0 SHR DUP1 PUSH4 0xFF8D8A5 EQ PUSH2 0x5A JUMPI DUP1 PUSH4 0x12065FE0 EQ PUSH2 0x83 JUMPI DUP1 PUSH4 0x52A90C42 EQ PUSH2 0xAE JUMPI DUP1 PUSH4 0x6D26EC18 EQ PUSH2 0xD9 JUMPI DUP1 PUSH4 0xAC446002 EQ PUSH2 0xE3 JUMPI DUP1 PUSH4 0xCE0617EC EQ PUSH2 0xFA JUMPI JUMPDEST PUSH1 0x0 DUP1 REVERT JUMPDEST CALLVALUE DUP1 ISZERO PUSH2 0x66 JUMPI PUSH1 0x0 DUP1 REVERT JUMPDEST POP PUSH2 0x81 PUSH1 0x4 DUP1 CALLDATASIZE SUB DUP2 ADD SWAP1 PUSH2 0x7C SWAP2 SWAP1 PUSH2 0x22D JUMP JUMPDEST PUSH2 0x125 JUMP JUMPDEST STOP JUMPDEST CALLVALUE DUP1 ISZERO PUSH2 0x8F JUMPI PUSH1 0x0 DUP1 REVERT JUMPDEST POP PUSH2 0x98 PUSH2 0x176 JUMP JUMPDEST PUSH1 0x40 MLOAD PUSH2 0xA5 SWAP2 SWAP1 PUSH2 0x265 JUMP JUMPDEST PUSH1 0x40 MLOAD DUP1 SWAP2 SUB SWAP1 RETURN JUMPDEST CALLVALUE DUP1 ISZERO PUSH2 0xBA JUMPI PUSH1 0x0 DUP1 REVERT JUMPDEST POP PUSH2 0xC3 PUSH2 0x17E JUMP JUMPDEST PUSH1 0x40 MLOAD PUSH2 0xD0 SWAP2 SWAP1 PUSH2 0x265 JUMP JUMPDEST PUSH1 0x40 MLOAD DUP1 SWAP2 SUB SWAP1 RETURN JUMPDEST PUSH2 0xE1 PUSH2 0x184 JUMP JUMPDEST STOP JUMPDEST CALLVALUE DUP1 ISZERO PUSH2 0xEF JUMPI PUSH1 0x0 DUP1 REVERT JUMPDEST POP PUSH2 0xF8 PUSH2 0x1B1 JUMP JUMPDEST STOP JUMPDEST CALLVALUE DUP1 ISZERO PUSH2 0x106 JUMPI PUSH1 0x0 DUP1 REVERT JUMPDEST POP PUSH2 0x10F PUSH2 0x212 JUMP JUMPDEST PUSH1 0x40 MLOAD PUSH2 0x11C SWAP2 SWAP1 PUSH2 0x265 JUMP JUMPDEST PUSH1 0x40 MLOAD DUP1 SWAP2 SUB SWAP1 RETURN JUMPDEST DUP1 PUSH20 0xFFFFFFFFFFFFFFFFFFFFFFFFFFFFFFFFFFFFFFFF AND PUSH2 0x8FC PUSH2 0x147 PUSH2 0x176 JUMP JUMPDEST SWAP1 DUP2 ISZERO MUL SWAP1 PUSH1 0x40 MLOAD PUSH1 0x0 PUSH1 0x40 MLOAD DUP1 DUP4 SUB DUP2 DUP6 DUP9 DUP9 CALL SWAP4 POP POP POP POP ISZERO DUP1 ISZERO PUSH2 0x172 JUMPI RETURNDATASIZE PUSH1 0x0 DUP1 RETURNDATACOPY RETURNDATASIZE PUSH1 0x0 REVERT JUMPDEST POP POP JUMP JUMPDEST PUSH1 0x0 SELFBALANCE SWAP1 POP SWAP1 JUMP JUMPDEST PUSH1 0x0 SLOAD DUP2 JUMP JUMPDEST CALLVALUE PUSH1 0x0 DUP1 DUP3 DUP3 SLOAD PUSH2 0x195 SWAP2 SWAP1 PUSH2 0x280 JUMP JUMPDEST SWAP3 POP POP DUP2 SWAP1 SSTORE POP PUSH1 0x3C TIMESTAMP PUSH2 0x1A9 SWAP2 SWAP1 PUSH2 0x280 JUMP JUMPDEST PUSH1 0x1 DUP2 SWAP1 SSTORE POP JUMP JUMPDEST TIMESTAMP PUSH1 0x1 SLOAD LT ISZERO PUSH2 0x210 JUMPI PUSH1 0x0 CALLER SWAP1 POP DUP1 PUSH20 0xFFFFFFFFFFFFFFFFFFFFFFFFFFFFFFFFFFFFFFFF AND PUSH2 0x8FC PUSH2 0x1E2 PUSH2 0x176 JUMP JUMPDEST SWAP1 DUP2 ISZERO MUL SWAP1 PUSH1 0x40 MLOAD PUSH1 0x0 PUSH1 0x40 MLOAD DUP1 DUP4 SUB DUP2 DUP6 DUP9 DUP9 CALL SWAP4 POP POP POP POP ISZERO DUP1 ISZERO PUSH2 0x20D JUMPI RETURNDATASIZE PUSH1 0x0 DUP1 RETURNDATACOPY RETURNDATASIZE PUSH1 0x0 REVERT JUMPDEST POP POP JUMPDEST JUMP JUMPDEST PUSH1 0x1 SLOAD DUP2 JUMP JUMPDEST PUSH1 0x0 DUP2 CALLDATALOAD SWAP1 POP PUSH2 0x227 DUP2 PUSH2 0x341 JUMP JUMPDEST SWAP3 SWAP2 POP POP JUMP JUMPDEST PUSH1 0x0 PUSH1 0x20 DUP3 DUP5 SUB SLT ISZERO PUSH2 0x23F JUMPI PUSH1 0x0 DUP1 REVERT JUMPDEST PUSH1 0x0 PUSH2 0x24D DUP5 DUP3 DUP6 ADD PUSH2 0x218 JUMP JUMPDEST SWAP2 POP POP SWAP3 SWAP2 POP POP JUMP JUMPDEST PUSH2 0x25F DUP2 PUSH2 0x308 JUMP JUMPDEST DUP3 MSTORE POP POP JUMP JUMPDEST PUSH1 0x0 PUSH1 0x20 DUP3 ADD SWAP1 POP PUSH2 0x27A PUSH1 0x0 DUP4 ADD DUP5 PUSH2 0x256 JUMP JUMPDEST SWAP3 SWAP2 POP POP JUMP JUMPDEST PUSH1 0x0 PUSH2 0x28B DUP3 PUSH2 0x308 JUMP JUMPDEST SWAP2 POP PUSH2 0x296 DUP4 PUSH2 0x308 JUMP JUMPDEST SWAP3 POP DUP3 PUSH32 0xFFFFFFFFFFFFFFFFFFFFFFFFFFFFFFFFFFFFFFFFFFFFFFFFFFFFFFFFFFFFFFFF SUB DUP3 GT ISZERO PUSH2 0x2CB JUMPI PUSH2 0x2CA PUSH2 0x312 JUMP JUMPDEST JUMPDEST DUP3 DUP3 ADD SWAP1 POP SWAP3 SWAP2 POP POP JUMP JUMPDEST PUSH1 0x0 PUSH2 0x2E1 DUP3 PUSH2 0x2E8 JUMP JUMPDEST SWAP1 POP SWAP2 SWAP1 POP JUMP JUMPDEST PUSH1 0x0 PUSH20 0xFFFFFFFFFFFFFFFFFFFFFFFFFFFFFFFFFFFFFFFF DUP3 AND SWAP1 POP SWAP2 SWAP1 POP JUMP JUMPDEST PUSH1 0x0 DUP2 SWAP1 POP SWAP2 SWAP1 POP JUMP JUMPDEST PUSH32 0x4E487B7100000000000000000000000000000000000000000000000000000000 PUSH1 0x0 MSTORE PUSH1 0x11 PUSH1 0x4 MSTORE PUSH1 0x24 PUSH1 0x0 REVERT JUMPDEST PUSH2 0x34A DUP2 PUSH2 0x2D6 JUMP JUMPDEST DUP2 EQ PUSH2 0x355 JUMPI PUSH1 0x0 DUP1 REVERT JUMPDEST POP JUMP INVALID LOG2 PUSH5 0x6970667358 0x22 SLT KECCAK256 SSTORE PUSH12 0x56F9D4E58B9C7EAD47C508CD SWAP12 0x4B SELFDESTRUCT CALLDATACOPY SWAP7 0xF8 PUSH22 0xA7CA448C0EF30E381E2E5D64736F6C63430008010033 "
				},
				"gasEstimates": {
					"creation": {
						"codeDepositCost": "182000",
						"executionCost": "226",
						"totalCost": "182226"
					},
					"external": {
						"balanceReceived()": "1151",
						"getBalance()": "339",
						"lockedUntil()": "1217",
						"receiveMoney()": "infinite",
						"withdrawMoney()": "infinite",
						"withdrawMoneyTo(address)": "infinite"
					}
				},
				"methodIdentifiers": {
					"balanceReceived()": "52a90c42",
					"getBalance()": "12065fe0",
					"lockedUntil()": "ce0617ec",
					"receiveMoney()": "6d26ec18",
					"withdrawMoney()": "ac446002",
					"withdrawMoneyTo(address)": "0ff8d8a5"
				}
			},
			"storageLayout": {
				"storage": [
					{
						"astId": 3,
						"contract": "ExtendedSendMoneyAddWithDrawSpecificAcc.sol:SendMoneyExample",
						"label": "balanceReceived",
						"offset": 0,
						"slot": "0",
						"type": "t_uint256"
					},
					{
						"astId": 5,
						"contract": "ExtendedSendMoneyAddWithDrawSpecificAcc.sol:SendMoneyExample",
						"label": "lockedUntil",
						"offset": 0,
						"slot": "1",
						"type": "t_uint256"
					}
				],
				"types": {
					"t_uint256": {
						"encoding": "inplace",
						"label": "uint256",
						"numberOfBytes": "32"
					}
				}
			},
			"userdoc": {
				"kind": "user",
				"methods": {},
				"version": 1
			}
		}
	}
}