{
	"ExtendedSendMoneyAddWithDrawSpecificAcc.sol": {
		"SendMoneyExample": {
			"abi": [
				{
					"inputs": [],
					"name": "balanceReceived",
					"outputs": [
						{
							"internalType": "uint256",
							"name": "",
							"type": "uint256"
						}
					],
					"stateMutability": "view",
					"type": "function"
				},
				{
					"inputs": [],
					"name": "getBalance",
					"outputs": [
						{
							"internalType": "uint256",
							"name": "",
							"type": "uint256"
						}
					],
					"stateMutability": "view",
					"type": "function"
				},
				{
					"inputs": [],
					"name": "lockedUntil",
					"outputs": [
						{
							"internalType": "uint256",
							"name": "",
							"type": "uint256"
						}
					],
					"stateMutability": "view",
					"type": "function"
				},
				{
					"inputs": [],
					"name": "receiveMoney",
					"outputs": [],
					"stateMutability": "payable",
					"type": "function"
				},
				{
					"inputs": [],
					"name": "withdrawMoney",
					"outputs": [],
					"stateMutability": "nonpayable",
					"type": "function"
				}
			],
			"devdoc": {
				"kind": "dev",
				"methods": {},
				"version": 1
			},
			"evm": {
				"assembly": "    /* \"ExtendedSendMoneyAddWithDrawSpecificAcc.sol\":102:542  contract SendMoneyExample {\r... */\n  mstore(0x40, 0x80)\n  callvalue\n  dup1\n  iszero\n  tag_1\n  jumpi\n  0x00\n  dup1\n  revert\ntag_1:\n  pop\n  dataSize(sub_0)\n  dup1\n  dataOffset(sub_0)\n  0x00\n  codecopy\n  0x00\n  return\nstop\n\nsub_0: assembly {\n        /* \"ExtendedSendMoneyAddWithDrawSpecificAcc.sol\":102:542  contract SendMoneyExample {\r... */\n      mstore(0x40, 0x80)\n      jumpi(tag_1, lt(calldatasize, 0x04))\n      shr(0xe0, calldataload(0x00))\n      dup1\n      0x12065fe0\n      eq\n      tag_2\n      jumpi\n      dup1\n      0x52a90c42\n      eq\n      tag_3\n      jumpi\n      dup1\n      0x6d26ec18\n      eq\n      tag_4\n      jumpi\n      dup1\n      0xac446002\n      eq\n      tag_5\n      jumpi\n      dup1\n      0xce0617ec\n      eq\n      tag_6\n      jumpi\n    tag_1:\n      0x00\n      dup1\n      revert\n        /* \"ExtendedSendMoneyAddWithDrawSpecificAcc.sol\":309:404  function getBalance() public view returns(uint) {\r... */\n    tag_2:\n      callvalue\n      dup1\n      iszero\n      tag_7\n      jumpi\n      0x00\n      dup1\n      revert\n    tag_7:\n      pop\n      tag_8\n      tag_9\n      jump\t// in\n    tag_8:\n      mload(0x40)\n      tag_10\n      swap2\n      swap1\n      tag_11\n      jump\t// in\n    tag_10:\n      mload(0x40)\n      dup1\n      swap2\n      sub\n      swap1\n      return\n        /* \"ExtendedSendMoneyAddWithDrawSpecificAcc.sol\":137:164  uint public balanceReceived */\n    tag_3:\n      callvalue\n      dup1\n      iszero\n      tag_12\n      jumpi\n      0x00\n      dup1\n      revert\n    tag_12:\n      pop\n      tag_13\n      tag_14\n      jump\t// in\n    tag_13:\n      mload(0x40)\n      tag_15\n      swap2\n      swap1\n      tag_11\n      jump\t// in\n    tag_15:\n      mload(0x40)\n      dup1\n      swap2\n      sub\n      swap1\n      return\n        /* \"ExtendedSendMoneyAddWithDrawSpecificAcc.sol\":207:293  function receiveMoney() public payable {\r... */\n    tag_4:\n      tag_16\n      tag_17\n      jump\t// in\n    tag_16:\n      stop\n        /* \"ExtendedSendMoneyAddWithDrawSpecificAcc.sol\":412:539  function withdrawMoney() public {\r... */\n    tag_5:\n      callvalue\n      dup1\n      iszero\n      tag_18\n      jumpi\n      0x00\n      dup1\n      revert\n    tag_18:\n      pop\n      tag_19\n      tag_20\n      jump\t// in\n    tag_19:\n      stop\n        /* \"ExtendedSendMoneyAddWithDrawSpecificAcc.sol\":175:198  uint public lockedUntil */\n    tag_6:\n      callvalue\n      dup1\n      iszero\n      tag_21\n      jumpi\n      0x00\n      dup1\n      revert\n    tag_21:\n      pop\n      tag_22\n      tag_23\n      jump\t// in\n    tag_22:\n      mload(0x40)\n      tag_24\n      swap2\n      swap1\n      tag_11\n      jump\t// in\n    tag_24:\n      mload(0x40)\n      dup1\n      swap2\n      sub\n      swap1\n      return\n        /* \"ExtendedSendMoneyAddWithDrawSpecificAcc.sol\":309:404  function getBalance() public view returns(uint) {\r... */\n    tag_9:\n        /* \"ExtendedSendMoneyAddWithDrawSpecificAcc.sol\":351:355  uint */\n      0x00\n        /* \"ExtendedSendMoneyAddWithDrawSpecificAcc.sol\":375:396  address(this).balance */\n      selfbalance\n        /* \"ExtendedSendMoneyAddWithDrawSpecificAcc.sol\":368:396  return address(this).balance */\n      swap1\n      pop\n        /* \"ExtendedSendMoneyAddWithDrawSpecificAcc.sol\":309:404  function getBalance() public view returns(uint) {\r... */\n      swap1\n      jump\t// out\n        /* \"ExtendedSendMoneyAddWithDrawSpecificAcc.sol\":137:164  uint public balanceReceived */\n    tag_14:\n      sload(0x00)\n      dup2\n      jump\t// out\n        /* \"ExtendedSendMoneyAddWithDrawSpecificAcc.sol\":207:293  function receiveMoney() public payable {\r... */\n    tag_17:\n        /* \"ExtendedSendMoneyAddWithDrawSpecificAcc.sol\":276:285  msg.value */\n      callvalue\n        /* \"ExtendedSendMoneyAddWithDrawSpecificAcc.sol\":257:272  balanceReceived */\n      0x00\n      dup1\n        /* \"ExtendedSendMoneyAddWithDrawSpecificAcc.sol\":257:285  balanceReceived += msg.value */\n      dup3\n      dup3\n      sload\n      tag_27\n      swap2\n      swap1\n      tag_28\n      jump\t// in\n    tag_27:\n      swap3\n      pop\n      pop\n      dup2\n      swap1\n      sstore\n      pop\n        /* \"ExtendedSendMoneyAddWithDrawSpecificAcc.sol\":207:293  function receiveMoney() public payable {\r... */\n      jump\t// out\n        /* \"ExtendedSendMoneyAddWithDrawSpecificAcc.sol\":412:539  function withdrawMoney() public {\r... */\n    tag_20:\n        /* \"ExtendedSendMoneyAddWithDrawSpecificAcc.sol\":455:473  address payable to */\n      0x00\n        /* \"ExtendedSendMoneyAddWithDrawSpecificAcc.sol\":484:494  msg.sender */\n      caller\n        /* \"ExtendedSendMoneyAddWithDrawSpecificAcc.sol\":455:495  address payable to = payable(msg.sender) */\n      swap1\n      pop\n        /* \"ExtendedSendMoneyAddWithDrawSpecificAcc.sol\":506:508  to */\n      dup1\n        /* \"ExtendedSendMoneyAddWithDrawSpecificAcc.sol\":506:517  to.transfer */\n      0xffffffffffffffffffffffffffffffffffffffff\n      and\n        /* \"ExtendedSendMoneyAddWithDrawSpecificAcc.sol\":506:531  to.transfer(getBalance()) */\n      0x08fc\n        /* \"ExtendedSendMoneyAddWithDrawSpecificAcc.sol\":518:530  getBalance() */\n      tag_30\n        /* \"ExtendedSendMoneyAddWithDrawSpecificAcc.sol\":518:528  getBalance */\n      tag_9\n        /* \"ExtendedSendMoneyAddWithDrawSpecificAcc.sol\":518:530  getBalance() */\n      jump\t// in\n    tag_30:\n        /* \"ExtendedSendMoneyAddWithDrawSpecificAcc.sol\":506:531  to.transfer(getBalance()) */\n      swap1\n      dup2\n      iszero\n      mul\n      swap1\n      mload(0x40)\n      0x00\n      mload(0x40)\n      dup1\n      dup4\n      sub\n      dup2\n      dup6\n      dup9\n      dup9\n      call\n      swap4\n      pop\n      pop\n      pop\n      pop\n      iszero\n      dup1\n      iszero\n      tag_32\n      jumpi\n      returndatasize\n      0x00\n      dup1\n      returndatacopy\n      revert(0x00, returndatasize)\n    tag_32:\n      pop\n        /* \"ExtendedSendMoneyAddWithDrawSpecificAcc.sol\":412:539  function withdrawMoney() public {\r... */\n      pop\n      jump\t// out\n        /* \"ExtendedSendMoneyAddWithDrawSpecificAcc.sol\":175:198  uint public lockedUntil */\n    tag_23:\n      sload(0x01)\n      dup2\n      jump\t// out\n        /* \"#utility.yul\":7:125   */\n    tag_34:\n        /* \"#utility.yul\":94:118   */\n      tag_36\n        /* \"#utility.yul\":112:117   */\n      dup2\n        /* \"#utility.yul\":94:118   */\n      tag_37\n      jump\t// in\n    tag_36:\n        /* \"#utility.yul\":89:92   */\n      dup3\n        /* \"#utility.yul\":82:119   */\n      mstore\n        /* \"#utility.yul\":72:125   */\n      pop\n      pop\n      jump\t// out\n        /* \"#utility.yul\":131:353   */\n    tag_11:\n      0x00\n        /* \"#utility.yul\":262:264   */\n      0x20\n        /* \"#utility.yul\":251:260   */\n      dup3\n        /* \"#utility.yul\":247:265   */\n      add\n        /* \"#utility.yul\":239:265   */\n      swap1\n      pop\n        /* \"#utility.yul\":275:346   */\n      tag_39\n        /* \"#utility.yul\":343:344   */\n      0x00\n        /* \"#utility.yul\":332:341   */\n      dup4\n        /* \"#utility.yul\":328:345   */\n      add\n        /* \"#utility.yul\":319:325   */\n      dup5\n        /* \"#utility.yul\":275:346   */\n      tag_34\n      jump\t// in\n    tag_39:\n        /* \"#utility.yul\":229:353   */\n      swap3\n      swap2\n      pop\n      pop\n      jump\t// out\n        /* \"#utility.yul\":359:664   */\n    tag_28:\n      0x00\n        /* \"#utility.yul\":418:438   */\n      tag_41\n        /* \"#utility.yul\":436:437   */\n      dup3\n        /* \"#utility.yul\":418:438   */\n      tag_37\n      jump\t// in\n    tag_41:\n        /* \"#utility.yul\":413:438   */\n      swap2\n      pop\n        /* \"#utility.yul\":452:472   */\n      tag_42\n        /* \"#utility.yul\":470:471   */\n      dup4\n        /* \"#utility.yul\":452:472   */\n      tag_37\n      jump\t// in\n    tag_42:\n        /* \"#utility.yul\":447:472   */\n      swap3\n      pop\n        /* \"#utility.yul\":606:607   */\n      dup3\n        /* \"#utility.yul\":538:604   */\n      0xffffffffffffffffffffffffffffffffffffffffffffffffffffffffffffffff\n        /* \"#utility.yul\":534:608   */\n      sub\n        /* \"#utility.yul\":531:532   */\n      dup3\n        /* \"#utility.yul\":528:609   */\n      gt\n        /* \"#utility.yul\":525:527   */\n      iszero\n      tag_43\n      jumpi\n        /* \"#utility.yul\":612:630   */\n      tag_44\n      tag_45\n      jump\t// in\n    tag_44:\n        /* \"#utility.yul\":525:527   */\n    tag_43:\n        /* \"#utility.yul\":656:657   */\n      dup3\n        /* \"#utility.yul\":653:654   */\n      dup3\n        /* \"#utility.yul\":649:658   */\n      add\n        /* \"#utility.yul\":642:658   */\n      swap1\n      pop\n        /* \"#utility.yul\":403:664   */\n      swap3\n      swap2\n      pop\n      pop\n      jump\t// out\n        /* \"#utility.yul\":670:747   */\n    tag_37:\n      0x00\n        /* \"#utility.yul\":736:741   */\n      dup2\n        /* \"#utility.yul\":725:741   */\n      swap1\n      pop\n        /* \"#utility.yul\":715:747   */\n      swap2\n      swap1\n      pop\n      jump\t// out\n        /* \"#utility.yul\":753:933   */\n    tag_45:\n        /* \"#utility.yul\":801:878   */\n      0x4e487b7100000000000000000000000000000000000000000000000000000000\n        /* \"#utility.yul\":798:799   */\n      0x00\n        /* \"#utility.yul\":791:879   */\n      mstore\n        /* \"#utility.yul\":898:902   */\n      0x11\n        /* \"#utility.yul\":895:896   */\n      0x04\n        /* \"#utility.yul\":888:903   */\n      mstore\n        /* \"#utility.yul\":922:926   */\n      0x24\n        /* \"#utility.yul\":919:920   */\n      0x00\n        /* \"#utility.yul\":912:927   */\n      revert\n\n    auxdata: 0xa264697066735822122011671c5258aced1aab5c3fe1ca08d6e1575f21a6fbd77e79ed309a3769e7559a64736f6c63430008010033\n}\n",
				"bytecode": {
					"linkReferences": {},
					"object": "608060405234801561001057600080fd5b50610264806100206000396000f3fe60806040526004361061004a5760003560e01c806312065fe01461004f57806352a90c421461007a5780636d26ec18146100a5578063ac446002146100af578063ce0617ec146100c6575b600080fd5b34801561005b57600080fd5b506100646100f1565b6040516100719190610184565b60405180910390f35b34801561008657600080fd5b5061008f6100f9565b60405161009c9190610184565b60405180910390f35b6100ad6100ff565b005b3480156100bb57600080fd5b506100c4610119565b005b3480156100d257600080fd5b506100db61016f565b6040516100e89190610184565b60405180910390f35b600047905090565b60005481565b34600080828254610110919061019f565b92505081905550565b60003390508073ffffffffffffffffffffffffffffffffffffffff166108fc6101406100f1565b9081150290604051600060405180830381858888f1935050505015801561016b573d6000803e3d6000fd5b5050565b60015481565b61017e816101f5565b82525050565b60006020820190506101996000830184610175565b92915050565b60006101aa826101f5565b91506101b5836101f5565b9250827fffffffffffffffffffffffffffffffffffffffffffffffffffffffffffffffff038211156101ea576101e96101ff565b5b828201905092915050565b6000819050919050565b7f4e487b7100000000000000000000000000000000000000000000000000000000600052601160045260246000fdfea264697066735822122011671c5258aced1aab5c3fe1ca08d6e1575f21a6fbd77e79ed309a3769e7559a64736f6c63430008010033",
					"opcodes": "PUSH1 0x80 PUSH1 0x40 MSTORE CALLVALUE DUP1 ISZERO PUSH2 0x10 JUMPI PUSH1 0x0 DUP1 REVERT JUMPDEST POP PUSH2 0x264 DUP1 PUSH2 0x20 PUSH1 0x0 CODECOPY PUSH1 0x0 RETURN INVALID PUSH1 0x80 PUSH1 0x40 MSTORE PUSH1 0x4 CALLDATASIZE LT PUSH2 0x4A JUMPI PUSH1 0x0 CALLDATALOAD PUSH1 0xE0 SHR DUP1 PUSH4 0x12065FE0 EQ PUSH2 0x4F JUMPI DUP1 PUSH4 0x52A90C42 EQ PUSH2 0x7A JUMPI DUP1 PUSH4 0x6D26EC18 EQ PUSH2 0xA5 JUMPI DUP1 PUSH4 0xAC446002 EQ PUSH2 0xAF JUMPI DUP1 PUSH4 0xCE0617EC EQ PUSH2 0xC6 JUMPI JUMPDEST PUSH1 0x0 DUP1 REVERT JUMPDEST CALLVALUE DUP1 ISZERO PUSH2 0x5B JUMPI PUSH1 0x0 DUP1 REVERT JUMPDEST POP PUSH2 0x64 PUSH2 0xF1 JUMP JUMPDEST PUSH1 0x40 MLOAD PUSH2 0x71 SWAP2 SWAP1 PUSH2 0x184 JUMP JUMPDEST PUSH1 0x40 MLOAD DUP1 SWAP2 SUB SWAP1 RETURN JUMPDEST CALLVALUE DUP1 ISZERO PUSH2 0x86 JUMPI PUSH1 0x0 DUP1 REVERT JUMPDEST POP PUSH2 0x8F PUSH2 0xF9 JUMP JUMPDEST PUSH1 0x40 MLOAD PUSH2 0x9C SWAP2 SWAP1 PUSH2 0x184 JUMP JUMPDEST PUSH1 0x40 MLOAD DUP1 SWAP2 SUB SWAP1 RETURN JUMPDEST PUSH2 0xAD PUSH2 0xFF JUMP JUMPDEST STOP JUMPDEST CALLVALUE DUP1 ISZERO PUSH2 0xBB JUMPI PUSH1 0x0 DUP1 REVERT JUMPDEST POP PUSH2 0xC4 PUSH2 0x119 JUMP JUMPDEST STOP JUMPDEST CALLVALUE DUP1 ISZERO PUSH2 0xD2 JUMPI PUSH1 0x0 DUP1 REVERT JUMPDEST POP PUSH2 0xDB PUSH2 0x16F JUMP JUMPDEST PUSH1 0x40 MLOAD PUSH2 0xE8 SWAP2 SWAP1 PUSH2 0x184 JUMP JUMPDEST PUSH1 0x40 MLOAD DUP1 SWAP2 SUB SWAP1 RETURN JUMPDEST PUSH1 0x0 SELFBALANCE SWAP1 POP SWAP1 JUMP JUMPDEST PUSH1 0x0 SLOAD DUP2 JUMP JUMPDEST CALLVALUE PUSH1 0x0 DUP1 DUP3 DUP3 SLOAD PUSH2 0x110 SWAP2 SWAP1 PUSH2 0x19F JUMP JUMPDEST SWAP3 POP POP DUP2 SWAP1 SSTORE POP JUMP JUMPDEST PUSH1 0x0 CALLER SWAP1 POP DUP1 PUSH20 0xFFFFFFFFFFFFFFFFFFFFFFFFFFFFFFFFFFFFFFFF AND PUSH2 0x8FC PUSH2 0x140 PUSH2 0xF1 JUMP JUMPDEST SWAP1 DUP2 ISZERO MUL SWAP1 PUSH1 0x40 MLOAD PUSH1 0x0 PUSH1 0x40 MLOAD DUP1 DUP4 SUB DUP2 DUP6 DUP9 DUP9 CALL SWAP4 POP POP POP POP ISZERO DUP1 ISZERO PUSH2 0x16B JUMPI RETURNDATASIZE PUSH1 0x0 DUP1 RETURNDATACOPY RETURNDATASIZE PUSH1 0x0 REVERT JUMPDEST POP POP JUMP JUMPDEST PUSH1 0x1 SLOAD DUP2 JUMP JUMPDEST PUSH2 0x17E DUP2 PUSH2 0x1F5 JUMP JUMPDEST DUP3 MSTORE POP POP JUMP JUMPDEST PUSH1 0x0 PUSH1 0x20 DUP3 ADD SWAP1 POP PUSH2 0x199 PUSH1 0x0 DUP4 ADD DUP5 PUSH2 0x175 JUMP JUMPDEST SWAP3 SWAP2 POP POP JUMP JUMPDEST PUSH1 0x0 PUSH2 0x1AA DUP3 PUSH2 0x1F5 JUMP JUMPDEST SWAP2 POP PUSH2 0x1B5 DUP4 PUSH2 0x1F5 JUMP JUMPDEST SWAP3 POP DUP3 PUSH32 0xFFFFFFFFFFFFFFFFFFFFFFFFFFFFFFFFFFFFFFFFFFFFFFFFFFFFFFFFFFFFFFFF SUB DUP3 GT ISZERO PUSH2 0x1EA JUMPI PUSH2 0x1E9 PUSH2 0x1FF JUMP JUMPDEST JUMPDEST DUP3 DUP3 ADD SWAP1 POP SWAP3 SWAP2 POP POP JUMP JUMPDEST PUSH1 0x0 DUP2 SWAP1 POP SWAP2 SWAP1 POP JUMP JUMPDEST PUSH32 0x4E487B7100000000000000000000000000000000000000000000000000000000 PUSH1 0x0 MSTORE PUSH1 0x11 PUSH1 0x4 MSTORE PUSH1 0x24 PUSH1 0x0 REVERT INVALID LOG2 PUSH5 0x6970667358 0x22 SLT KECCAK256 GT PUSH8 0x1C5258ACED1AAB5C EXTCODEHASH 0xE1 0xCA ADDMOD 0xD6 0xE1 JUMPI 0x5F 0x21 0xA6 0xFB 0xD7 PUSH31 0x79ED309A3769E7559A64736F6C634300080100330000000000000000000000 "
				},
				"gasEstimates": {
					"creation": {
						"codeDepositCost": "122400",
						"executionCost": "171",
						"totalCost": "122571"
					},
					"external": {
						"balanceReceived()": "1129",
						"getBalance()": "317",
						"lockedUntil()": "1195",
						"receiveMoney()": "infinite",
						"withdrawMoney()": "infinite"
					}
				},
				"methodIdentifiers": {
					"balanceReceived()": "52a90c42",
					"getBalance()": "12065fe0",
					"lockedUntil()": "ce0617ec",
					"receiveMoney()": "6d26ec18",
					"withdrawMoney()": "ac446002"
				}
			},
			"storageLayout": {
				"storage": [
					{
						"astId": 3,
						"contract": "ExtendedSendMoneyAddWithDrawSpecificAcc.sol:SendMoneyExample",
						"label": "balanceReceived",
						"offset": 0,
						"slot": "0",
						"type": "t_uint256"
					},
					{
						"astId": 5,
						"contract": "ExtendedSendMoneyAddWithDrawSpecificAcc.sol:SendMoneyExample",
						"label": "lockedUntil",
						"offset": 0,
						"slot": "1",
						"type": "t_uint256"
					}
				],
				"types": {
					"t_uint256": {
						"encoding": "inplace",
						"label": "uint256",
						"numberOfBytes": "32"
					}
				}
			},
			"userdoc": {
				"kind": "user",
				"methods": {},
				"version": 1
			}
		}
	}
}