{
	"RolloverExampleSol08unchecked.sol": {
		"RolloverExample2": {
			"abi": [
				{
					"inputs": [],
					"name": "decrement",
					"outputs": [],
					"stateMutability": "nonpayable",
					"type": "function"
				},
				{
					"inputs": [],
					"name": "increment",
					"outputs": [],
					"stateMutability": "nonpayable",
					"type": "function"
				},
				{
					"inputs": [],
					"name": "myUint8",
					"outputs": [
						{
							"internalType": "uint8",
							"name": "",
							"type": "uint8"
						}
					],
					"stateMutability": "view",
					"type": "function"
				}
			],
			"devdoc": {
				"kind": "dev",
				"methods": {},
				"version": 1
			},
			"evm": {
				"assembly": "    /* \"RolloverExampleSol08unchecked.sol\":65:328  contract RolloverExample2 {\r... */\n  mstore(0x40, 0x80)\n  callvalue\n  dup1\n  iszero\n  tag_1\n  jumpi\n  0x00\n  dup1\n  revert\ntag_1:\n  pop\n  dataSize(sub_0)\n  dup1\n  dataOffset(sub_0)\n  0x00\n  codecopy\n  0x00\n  return\nstop\n\nsub_0: assembly {\n        /* \"RolloverExampleSol08unchecked.sol\":65:328  contract RolloverExample2 {\r... */\n      mstore(0x40, 0x80)\n      callvalue\n      dup1\n      iszero\n      tag_1\n      jumpi\n      0x00\n      dup1\n      revert\n    tag_1:\n      pop\n      jumpi(tag_2, lt(calldatasize, 0x04))\n      shr(0xe0, calldataload(0x00))\n      dup1\n      0x2baeceb7\n      eq\n      tag_3\n      jumpi\n      dup1\n      0xd09de08a\n      eq\n      tag_4\n      jumpi\n      dup1\n      0xe2a4b2af\n      eq\n      tag_5\n      jumpi\n    tag_2:\n      0x00\n      dup1\n      revert\n        /* \"RolloverExampleSol08unchecked.sol\":131:222  function decrement() public {\r... */\n    tag_3:\n      tag_6\n      tag_7\n      jump\t// in\n    tag_6:\n      stop\n        /* \"RolloverExampleSol08unchecked.sol\":234:325  function increment() public {\r... */\n    tag_4:\n      tag_8\n      tag_9\n      jump\t// in\n    tag_8:\n      stop\n        /* \"RolloverExampleSol08unchecked.sol\":98:118  uint8 public myUint8 */\n    tag_5:\n      tag_10\n      tag_11\n      jump\t// in\n    tag_10:\n      mload(0x40)\n      tag_12\n      swap2\n      swap1\n      tag_13\n      jump\t// in\n    tag_12:\n      mload(0x40)\n      dup1\n      swap2\n      sub\n      swap1\n      return\n        /* \"RolloverExampleSol08unchecked.sol\":131:222  function decrement() public {\r... */\n    tag_7:\n        /* \"RolloverExampleSol08unchecked.sol\":194:201  myUint8 */\n      0x00\n      dup1\n        /* \"RolloverExampleSol08unchecked.sol\":194:203  myUint8-- */\n      dup2\n      dup2\n      swap1\n      sload\n      swap1\n      0x0100\n      exp\n      swap1\n      div\n      0xff\n      and\n      dup1\n      swap3\n      swap2\n      swap1\n      0x01\n      swap1\n      sub\n      swap2\n      swap1\n      0x0100\n      exp\n      dup2\n      sload\n      dup2\n      0xff\n      mul\n      not\n      and\n      swap1\n      dup4\n      0xff\n      and\n      mul\n      or\n      swap1\n      sstore\n      pop\n      pop\n        /* \"RolloverExampleSol08unchecked.sol\":131:222  function decrement() public {\r... */\n      jump\t// out\n        /* \"RolloverExampleSol08unchecked.sol\":234:325  function increment() public {\r... */\n    tag_9:\n        /* \"RolloverExampleSol08unchecked.sol\":297:304  myUint8 */\n      0x00\n      dup1\n        /* \"RolloverExampleSol08unchecked.sol\":297:306  myUint8-- */\n      dup2\n      dup2\n      swap1\n      sload\n      swap1\n      0x0100\n      exp\n      swap1\n      div\n      0xff\n      and\n      dup1\n      swap3\n      swap2\n      swap1\n      0x01\n      swap1\n      sub\n      swap2\n      swap1\n      0x0100\n      exp\n      dup2\n      sload\n      dup2\n      0xff\n      mul\n      not\n      and\n      swap1\n      dup4\n      0xff\n      and\n      mul\n      or\n      swap1\n      sstore\n      pop\n      pop\n        /* \"RolloverExampleSol08unchecked.sol\":234:325  function increment() public {\r... */\n      jump\t// out\n        /* \"RolloverExampleSol08unchecked.sol\":98:118  uint8 public myUint8 */\n    tag_11:\n      0x00\n      dup1\n      sload\n      swap1\n      0x0100\n      exp\n      swap1\n      div\n      0xff\n      and\n      dup2\n      jump\t// out\n        /* \"#utility.yul\":7:119   */\n    tag_17:\n        /* \"#utility.yul\":90:112   */\n      tag_19\n        /* \"#utility.yul\":106:111   */\n      dup2\n        /* \"#utility.yul\":90:112   */\n      tag_20\n      jump\t// in\n    tag_19:\n        /* \"#utility.yul\":85:88   */\n      dup3\n        /* \"#utility.yul\":78:113   */\n      mstore\n        /* \"#utility.yul\":68:119   */\n      pop\n      pop\n      jump\t// out\n        /* \"#utility.yul\":125:339   */\n    tag_13:\n      0x00\n        /* \"#utility.yul\":252:254   */\n      0x20\n        /* \"#utility.yul\":241:250   */\n      dup3\n        /* \"#utility.yul\":237:255   */\n      add\n        /* \"#utility.yul\":229:255   */\n      swap1\n      pop\n        /* \"#utility.yul\":265:332   */\n      tag_22\n        /* \"#utility.yul\":329:330   */\n      0x00\n        /* \"#utility.yul\":318:327   */\n      dup4\n        /* \"#utility.yul\":314:331   */\n      add\n        /* \"#utility.yul\":305:311   */\n      dup5\n        /* \"#utility.yul\":265:332   */\n      tag_17\n      jump\t// in\n    tag_22:\n        /* \"#utility.yul\":219:339   */\n      swap3\n      swap2\n      pop\n      pop\n      jump\t// out\n        /* \"#utility.yul\":345:431   */\n    tag_20:\n      0x00\n        /* \"#utility.yul\":420:424   */\n      0xff\n        /* \"#utility.yul\":413:418   */\n      dup3\n        /* \"#utility.yul\":409:425   */\n      and\n        /* \"#utility.yul\":398:425   */\n      swap1\n      pop\n        /* \"#utility.yul\":388:431   */\n      swap2\n      swap1\n      pop\n      jump\t// out\n\n    auxdata: 0xa264697066735822122057883f9ef206749a594b12dab5aa4e144e8bedc4ee82fcb57534443331c5b43964736f6c63430008000033\n}\n",
				"bytecode": {
					"linkReferences": {},
					"object": "608060405234801561001057600080fd5b5061015e806100206000396000f3fe608060405234801561001057600080fd5b50600436106100415760003560e01c80632baeceb714610046578063d09de08a14610050578063e2a4b2af1461005a575b600080fd5b61004e610078565b005b6100586100ac565b005b6100626100e0565b60405161006f9190610100565b60405180910390f35b60008081819054906101000a900460ff16809291906001900391906101000a81548160ff021916908360ff16021790555050565b60008081819054906101000a900460ff16809291906001900391906101000a81548160ff021916908360ff16021790555050565b60008054906101000a900460ff1681565b6100fa8161011b565b82525050565b600060208201905061011560008301846100f1565b92915050565b600060ff8216905091905056fea264697066735822122057883f9ef206749a594b12dab5aa4e144e8bedc4ee82fcb57534443331c5b43964736f6c63430008000033",
					"opcodes": "PUSH1 0x80 PUSH1 0x40 MSTORE CALLVALUE DUP1 ISZERO PUSH2 0x10 JUMPI PUSH1 0x0 DUP1 REVERT JUMPDEST POP PUSH2 0x15E DUP1 PUSH2 0x20 PUSH1 0x0 CODECOPY PUSH1 0x0 RETURN INVALID PUSH1 0x80 PUSH1 0x40 MSTORE CALLVALUE DUP1 ISZERO PUSH2 0x10 JUMPI PUSH1 0x0 DUP1 REVERT JUMPDEST POP PUSH1 0x4 CALLDATASIZE LT PUSH2 0x41 JUMPI PUSH1 0x0 CALLDATALOAD PUSH1 0xE0 SHR DUP1 PUSH4 0x2BAECEB7 EQ PUSH2 0x46 JUMPI DUP1 PUSH4 0xD09DE08A EQ PUSH2 0x50 JUMPI DUP1 PUSH4 0xE2A4B2AF EQ PUSH2 0x5A JUMPI JUMPDEST PUSH1 0x0 DUP1 REVERT JUMPDEST PUSH2 0x4E PUSH2 0x78 JUMP JUMPDEST STOP JUMPDEST PUSH2 0x58 PUSH2 0xAC JUMP JUMPDEST STOP JUMPDEST PUSH2 0x62 PUSH2 0xE0 JUMP JUMPDEST PUSH1 0x40 MLOAD PUSH2 0x6F SWAP2 SWAP1 PUSH2 0x100 JUMP JUMPDEST PUSH1 0x40 MLOAD DUP1 SWAP2 SUB SWAP1 RETURN JUMPDEST PUSH1 0x0 DUP1 DUP2 DUP2 SWAP1 SLOAD SWAP1 PUSH2 0x100 EXP SWAP1 DIV PUSH1 0xFF AND DUP1 SWAP3 SWAP2 SWAP1 PUSH1 0x1 SWAP1 SUB SWAP2 SWAP1 PUSH2 0x100 EXP DUP2 SLOAD DUP2 PUSH1 0xFF MUL NOT AND SWAP1 DUP4 PUSH1 0xFF AND MUL OR SWAP1 SSTORE POP POP JUMP JUMPDEST PUSH1 0x0 DUP1 DUP2 DUP2 SWAP1 SLOAD SWAP1 PUSH2 0x100 EXP SWAP1 DIV PUSH1 0xFF AND DUP1 SWAP3 SWAP2 SWAP1 PUSH1 0x1 SWAP1 SUB SWAP2 SWAP1 PUSH2 0x100 EXP DUP2 SLOAD DUP2 PUSH1 0xFF MUL NOT AND SWAP1 DUP4 PUSH1 0xFF AND MUL OR SWAP1 SSTORE POP POP JUMP JUMPDEST PUSH1 0x0 DUP1 SLOAD SWAP1 PUSH2 0x100 EXP SWAP1 DIV PUSH1 0xFF AND DUP2 JUMP JUMPDEST PUSH2 0xFA DUP2 PUSH2 0x11B JUMP JUMPDEST DUP3 MSTORE POP POP JUMP JUMPDEST PUSH1 0x0 PUSH1 0x20 DUP3 ADD SWAP1 POP PUSH2 0x115 PUSH1 0x0 DUP4 ADD DUP5 PUSH2 0xF1 JUMP JUMPDEST SWAP3 SWAP2 POP POP JUMP JUMPDEST PUSH1 0x0 PUSH1 0xFF DUP3 AND SWAP1 POP SWAP2 SWAP1 POP JUMP INVALID LOG2 PUSH5 0x6970667358 0x22 SLT KECCAK256 JUMPI DUP9 EXTCODEHASH SWAP15 CALLCODE MOD PUSH21 0x9A594B12DAB5AA4E144E8BEDC4EE82FCB575344433 BALANCE 0xC5 0xB4 CODECOPY PUSH5 0x736F6C6343 STOP ADDMOD STOP STOP CALLER "
				},
				"gasEstimates": {
					"creation": {
						"codeDepositCost": "70000",
						"executionCost": "117",
						"totalCost": "70117"
					},
					"external": {
						"decrement()": "21854",
						"increment()": "21876",
						"myUint8()": "1190"
					}
				},
				"methodIdentifiers": {
					"decrement()": "2baeceb7",
					"increment()": "d09de08a",
					"myUint8()": "e2a4b2af"
				}
			},
			"storageLayout": {
				"storage": [
					{
						"astId": 3,
						"contract": "RolloverExampleSol08unchecked.sol:RolloverExample2",
						"label": "myUint8",
						"offset": 0,
						"slot": "0",
						"type": "t_uint8"
					}
				],
				"types": {
					"t_uint8": {
						"encoding": "inplace",
						"label": "uint8",
						"numberOfBytes": "1"
					}
				}
			},
			"userdoc": {
				"kind": "user",
				"methods": {},
				"version": 1
			}
		}
	}
}