{
	"RolloverExample.sol": {
		"RolloverExample": {
			"abi": [
				{
					"inputs": [],
					"name": "decrement",
					"outputs": [],
					"stateMutability": "nonpayable",
					"type": "function"
				},
				{
					"inputs": [],
					"name": "increment",
					"outputs": [],
					"stateMutability": "nonpayable",
					"type": "function"
				},
				{
					"inputs": [],
					"name": "myUint8",
					"outputs": [
						{
							"internalType": "uint8",
							"name": "",
							"type": "uint8"
						}
					],
					"stateMutability": "view",
					"type": "function"
				}
			],
			"devdoc": {
				"kind": "dev",
				"methods": {},
				"version": 1
			},
			"evm": {
				"assembly": "    /* \"RolloverExample.sol\":61:257  contract RolloverExample {\r... */\n  mstore(0x40, 0x80)\n  callvalue\n  dup1\n  iszero\n  tag_1\n  jumpi\n  0x00\n  dup1\n  revert\ntag_1:\n  pop\n  dataSize(sub_0)\n  dup1\n  dataOffset(sub_0)\n  0x00\n  codecopy\n  0x00\n  return\nstop\n\nsub_0: assembly {\n        /* \"RolloverExample.sol\":61:257  contract RolloverExample {\r... */\n      mstore(0x40, 0x80)\n      callvalue\n      dup1\n      iszero\n      tag_1\n      jumpi\n      0x00\n      dup1\n      revert\n    tag_1:\n      pop\n      jumpi(tag_2, lt(calldatasize, 0x04))\n      shr(0xe0, calldataload(0x00))\n      dup1\n      0x2baeceb7\n      eq\n      tag_3\n      jumpi\n      dup1\n      0xd09de08a\n      eq\n      tag_4\n      jumpi\n      dup1\n      0xe2a4b2af\n      eq\n      tag_5\n      jumpi\n    tag_2:\n      0x00\n      dup1\n      revert\n        /* \"RolloverExample.sol\":126:182  function decrement() public {\r... */\n    tag_3:\n      tag_6\n      tag_7\n      jump\t// in\n    tag_6:\n      stop\n        /* \"RolloverExample.sol\":194:254  function increment() public {\r... */\n    tag_4:\n      tag_8\n      tag_9\n      jump\t// in\n    tag_8:\n      stop\n        /* \"RolloverExample.sol\":93:113  uint8 public myUint8 */\n    tag_5:\n      tag_10\n      tag_11\n      jump\t// in\n    tag_10:\n      mload(0x40)\n      dup1\n      dup3\n      0xff\n      and\n      dup2\n      mstore\n      0x20\n      add\n      swap2\n      pop\n      pop\n      mload(0x40)\n      dup1\n      swap2\n      sub\n      swap1\n      return\n        /* \"RolloverExample.sol\":126:182  function decrement() public {\r... */\n    tag_7:\n        /* \"RolloverExample.sol\":165:172  myUint8 */\n      0x00\n      dup1\n        /* \"RolloverExample.sol\":165:174  myUint8-- */\n      dup2\n      dup2\n      swap1\n      sload\n      swap1\n      0x0100\n      exp\n      swap1\n      div\n      0xff\n      and\n      dup1\n      swap3\n      swap2\n      swap1\n      0x01\n      swap1\n      sub\n      swap2\n      swap1\n      0x0100\n      exp\n      dup2\n      sload\n      dup2\n      0xff\n      mul\n      not\n      and\n      swap1\n      dup4\n      0xff\n      and\n      mul\n      or\n      swap1\n      sstore\n      pop\n      pop\n        /* \"RolloverExample.sol\":126:182  function decrement() public {\r... */\n      jump\t// out\n        /* \"RolloverExample.sol\":194:254  function increment() public {\r... */\n    tag_9:\n        /* \"RolloverExample.sol\":233:240  myUint8 */\n      0x00\n      dup1\n        /* \"RolloverExample.sol\":233:242  myUint8++ */\n      dup2\n      dup2\n      swap1\n      sload\n      swap1\n      0x0100\n      exp\n      swap1\n      div\n      0xff\n      and\n      dup1\n      swap3\n      swap2\n      swap1\n      0x01\n      add\n      swap2\n      swap1\n      0x0100\n      exp\n      dup2\n      sload\n      dup2\n      0xff\n      mul\n      not\n      and\n      swap1\n      dup4\n      0xff\n      and\n      mul\n      or\n      swap1\n      sstore\n      pop\n      pop\n        /* \"RolloverExample.sol\":194:254  function increment() public {\r... */\n      jump\t// out\n        /* \"RolloverExample.sol\":93:113  uint8 public myUint8 */\n    tag_11:\n      0x00\n      dup1\n      sload\n      swap1\n      0x0100\n      exp\n      swap1\n      div\n      0xff\n      and\n      dup2\n      jump\t// out\n\n    auxdata: 0xa2646970667358221220f11b50bc4c3673b49e845e91ae99139e30d322e16ed14521cb80da256cc2364d64736f6c63430007000033\n}\n",
				"bytecode": {
					"linkReferences": {},
					"object": "608060405234801561001057600080fd5b5061011e806100206000396000f3fe6080604052348015600f57600080fd5b5060043610603c5760003560e01c80632baeceb7146041578063d09de08a146049578063e2a4b2af146051575b600080fd5b60476070565b005b604f60a4565b005b605760d7565b604051808260ff16815260200191505060405180910390f35b60008081819054906101000a900460ff16809291906001900391906101000a81548160ff021916908360ff16021790555050565b60008081819054906101000a900460ff168092919060010191906101000a81548160ff021916908360ff16021790555050565b60008054906101000a900460ff168156fea2646970667358221220f11b50bc4c3673b49e845e91ae99139e30d322e16ed14521cb80da256cc2364d64736f6c63430007000033",
					"opcodes": "PUSH1 0x80 PUSH1 0x40 MSTORE CALLVALUE DUP1 ISZERO PUSH2 0x10 JUMPI PUSH1 0x0 DUP1 REVERT JUMPDEST POP PUSH2 0x11E DUP1 PUSH2 0x20 PUSH1 0x0 CODECOPY PUSH1 0x0 RETURN INVALID PUSH1 0x80 PUSH1 0x40 MSTORE CALLVALUE DUP1 ISZERO PUSH1 0xF JUMPI PUSH1 0x0 DUP1 REVERT JUMPDEST POP PUSH1 0x4 CALLDATASIZE LT PUSH1 0x3C JUMPI PUSH1 0x0 CALLDATALOAD PUSH1 0xE0 SHR DUP1 PUSH4 0x2BAECEB7 EQ PUSH1 0x41 JUMPI DUP1 PUSH4 0xD09DE08A EQ PUSH1 0x49 JUMPI DUP1 PUSH4 0xE2A4B2AF EQ PUSH1 0x51 JUMPI JUMPDEST PUSH1 0x0 DUP1 REVERT JUMPDEST PUSH1 0x47 PUSH1 0x70 JUMP JUMPDEST STOP JUMPDEST PUSH1 0x4F PUSH1 0xA4 JUMP JUMPDEST STOP JUMPDEST PUSH1 0x57 PUSH1 0xD7 JUMP JUMPDEST PUSH1 0x40 MLOAD DUP1 DUP3 PUSH1 0xFF AND DUP2 MSTORE PUSH1 0x20 ADD SWAP2 POP POP PUSH1 0x40 MLOAD DUP1 SWAP2 SUB SWAP1 RETURN JUMPDEST PUSH1 0x0 DUP1 DUP2 DUP2 SWAP1 SLOAD SWAP1 PUSH2 0x100 EXP SWAP1 DIV PUSH1 0xFF AND DUP1 SWAP3 SWAP2 SWAP1 PUSH1 0x1 SWAP1 SUB SWAP2 SWAP1 PUSH2 0x100 EXP DUP2 SLOAD DUP2 PUSH1 0xFF MUL NOT AND SWAP1 DUP4 PUSH1 0xFF AND MUL OR SWAP1 SSTORE POP POP JUMP JUMPDEST PUSH1 0x0 DUP1 DUP2 DUP2 SWAP1 SLOAD SWAP1 PUSH2 0x100 EXP SWAP1 DIV PUSH1 0xFF AND DUP1 SWAP3 SWAP2 SWAP1 PUSH1 0x1 ADD SWAP2 SWAP1 PUSH2 0x100 EXP DUP2 SLOAD DUP2 PUSH1 0xFF MUL NOT AND SWAP1 DUP4 PUSH1 0xFF AND MUL OR SWAP1 SSTORE POP POP JUMP JUMPDEST PUSH1 0x0 DUP1 SLOAD SWAP1 PUSH2 0x100 EXP SWAP1 DIV PUSH1 0xFF AND DUP2 JUMP INVALID LOG2 PUSH5 0x6970667358 0x22 SLT KECCAK256 CALL SHL POP 0xBC 0x4C CALLDATASIZE PUSH20 0xB49E845E91AE99139E30D322E16ED14521CB80DA 0x25 PUSH13 0xC2364D64736F6C634300070000 CALLER "
				},
				"gasEstimates": {
					"creation": {
						"codeDepositCost": "57200",
						"executionCost": "105",
						"totalCost": "57305"
					},
					"external": {
						"decrement()": "21854",
						"increment()": "21873",
						"myUint8()": "1066"
					}
				},
				"methodIdentifiers": {
					"decrement()": "2baeceb7",
					"increment()": "d09de08a",
					"myUint8()": "e2a4b2af"
				}
			},
			"storageLayout": {
				"storage": [
					{
						"astId": 3,
						"contract": "RolloverExample.sol:RolloverExample",
						"label": "myUint8",
						"offset": 0,
						"slot": "0",
						"type": "t_uint8"
					}
				],
				"types": {
					"t_uint8": {
						"encoding": "inplace",
						"label": "uint8",
						"numberOfBytes": "1"
					}
				}
			},
			"userdoc": {
				"kind": "user",
				"methods": {},
				"version": 1
			}
		}
	}
}