{
	"data": {
		"bytecode": {
			"linkReferences": {},
			"object": "608060405234801561001057600080fd5b5061011e806100206000396000f3fe6080604052348015600f57600080fd5b5060043610603c5760003560e01c80632baeceb7146041578063d09de08a146049578063e2a4b2af146051575b600080fd5b60476070565b005b604f60a4565b005b605760d7565b604051808260ff16815260200191505060405180910390f35b60008081819054906101000a900460ff16809291906001900391906101000a81548160ff021916908360ff16021790555050565b60008081819054906101000a900460ff168092919060010191906101000a81548160ff021916908360ff16021790555050565b60008054906101000a900460ff168156fea26469706673582212204bfe06b4899be8b980dc1ff545ec43004bccb4b70b2bafc1f732c5b1f330165064736f6c63430007000033",
			"opcodes": "PUSH1 0x80 PUSH1 0x40 MSTORE CALLVALUE DUP1 ISZERO PUSH2 0x10 JUMPI PUSH1 0x0 DUP1 REVERT JUMPDEST POP PUSH2 0x11E DUP1 PUSH2 0x20 PUSH1 0x0 CODECOPY PUSH1 0x0 RETURN INVALID PUSH1 0x80 PUSH1 0x40 MSTORE CALLVALUE DUP1 ISZERO PUSH1 0xF JUMPI PUSH1 0x0 DUP1 REVERT JUMPDEST POP PUSH1 0x4 CALLDATASIZE LT PUSH1 0x3C JUMPI PUSH1 0x0 CALLDATALOAD PUSH1 0xE0 SHR DUP1 PUSH4 0x2BAECEB7 EQ PUSH1 0x41 JUMPI DUP1 PUSH4 0xD09DE08A EQ PUSH1 0x49 JUMPI DUP1 PUSH4 0xE2A4B2AF EQ PUSH1 0x51 JUMPI JUMPDEST PUSH1 0x0 DUP1 REVERT JUMPDEST PUSH1 0x47 PUSH1 0x70 JUMP JUMPDEST STOP JUMPDEST PUSH1 0x4F PUSH1 0xA4 JUMP JUMPDEST STOP JUMPDEST PUSH1 0x57 PUSH1 0xD7 JUMP JUMPDEST PUSH1 0x40 MLOAD DUP1 DUP3 PUSH1 0xFF AND DUP2 MSTORE PUSH1 0x20 ADD SWAP2 POP POP PUSH1 0x40 MLOAD DUP1 SWAP2 SUB SWAP1 RETURN JUMPDEST PUSH1 0x0 DUP1 DUP2 DUP2 SWAP1 SLOAD SWAP1 PUSH2 0x100 EXP SWAP1 DIV PUSH1 0xFF AND DUP1 SWAP3 SWAP2 SWAP1 PUSH1 0x1 SWAP1 SUB SWAP2 SWAP1 PUSH2 0x100 EXP DUP2 SLOAD DUP2 PUSH1 0xFF MUL NOT AND SWAP1 DUP4 PUSH1 0xFF AND MUL OR SWAP1 SSTORE POP POP JUMP JUMPDEST PUSH1 0x0 DUP1 DUP2 DUP2 SWAP1 SLOAD SWAP1 PUSH2 0x100 EXP SWAP1 DIV PUSH1 0xFF AND DUP1 SWAP3 SWAP2 SWAP1 PUSH1 0x1 ADD SWAP2 SWAP1 PUSH2 0x100 EXP DUP2 SLOAD DUP2 PUSH1 0xFF MUL NOT AND SWAP1 DUP4 PUSH1 0xFF AND MUL OR SWAP1 SSTORE POP POP JUMP JUMPDEST PUSH1 0x0 DUP1 SLOAD SWAP1 PUSH2 0x100 EXP SWAP1 DIV PUSH1 0xFF AND DUP2 JUMP INVALID LOG2 PUSH5 0x6970667358 0x22 SLT KECCAK256 0x4B INVALID MOD 0xB4 DUP10 SWAP12 0xE8 0xB9 DUP1 0xDC 0x1F CREATE2 GASLIMIT 0xEC NUMBER STOP 0x4B 0xCC 0xB4 0xB7 SIGNEXTEND 0x2B 0xAF 0xC1 0xF7 ORIGIN 0xC5 0xB1 RETURN ADDRESS AND POP PUSH5 0x736F6C6343 STOP SMOD STOP STOP CALLER "
		},
		"gasEstimates": {
			"creation": {
				"codeDepositCost": "57200",
				"executionCost": "105",
				"totalCost": "57305"
			},
			"external": {
				"decrement()": "21854",
				"increment()": "21873",
				"myUint8()": "1066"
			}
		},
		"methodIdentifiers": {
			"decrement()": "2baeceb7",
			"increment()": "d09de08a",
			"myUint8()": "e2a4b2af"
		}
	},
	"abi": [
		{
			"inputs": [],
			"name": "decrement",
			"outputs": [],
			"stateMutability": "nonpayable",
			"type": "function"
		},
		{
			"inputs": [],
			"name": "increment",
			"outputs": [],
			"stateMutability": "nonpayable",
			"type": "function"
		},
		{
			"inputs": [],
			"name": "myUint8",
			"outputs": [
				{
					"internalType": "uint8",
					"name": "",
					"type": "uint8"
				}
			],
			"stateMutability": "view",
			"type": "function"
		}
	]
}