{
  "contractName": "ItemManager",
  "abi": [
    {
      "anonymous": false,
      "inputs": [
        {
          "indexed": false,
          "internalType": "uint256",
          "name": "_itemIndex",
          "type": "uint256"
        },
        {
          "indexed": false,
          "internalType": "uint256",
          "name": "_step",
          "type": "uint256"
        },
        {
          "indexed": false,
          "internalType": "address",
          "name": "_address",
          "type": "address"
        }
      ],
      "name": "SupplyChainStep",
      "type": "event"
    },
    {
      "inputs": [],
      "name": "_owner",
      "outputs": [
        {
          "internalType": "address",
          "name": "",
          "type": "address"
        }
      ],
      "stateMutability": "view",
      "type": "function"
    },
    {
      "inputs": [],
      "name": "isOwner",
      "outputs": [
        {
          "internalType": "bool",
          "name": "",
          "type": "bool"
        }
      ],
      "stateMutability": "view",
      "type": "function"
    },
    {
      "inputs": [
        {
          "internalType": "uint256",
          "name": "",
          "type": "uint256"
        }
      ],
      "name": "items",
      "outputs": [
        {
          "internalType": "contract Item",
          "name": "_item",
          "type": "address"
        },
        {
          "internalType": "enum ItemManager.SupplyChainSteps",
          "name": "_step",
          "type": "uint8"
        },
        {
          "internalType": "string",
          "name": "_identifier",
          "type": "string"
        }
      ],
      "stateMutability": "view",
      "type": "function"
    },
    {
      "inputs": [
        {
          "internalType": "string",
          "name": "_identifier",
          "type": "string"
        },
        {
          "internalType": "uint256",
          "name": "_priceInWei",
          "type": "uint256"
        }
      ],
      "name": "createItem",
      "outputs": [],
      "stateMutability": "nonpayable",
      "type": "function"
    },
    {
      "inputs": [
        {
          "internalType": "uint256",
          "name": "_index",
          "type": "uint256"
        }
      ],
      "name": "triggerPayment",
      "outputs": [],
      "stateMutability": "payable",
      "type": "function"
    },
    {
      "inputs": [
        {
          "internalType": "uint256",
          "name": "_index",
          "type": "uint256"
        }
      ],
      "name": "triggerDelivery",
      "outputs": [],
      "stateMutability": "nonpayable",
      "type": "function"
    }
  ],
  "bytecode": "0x608060405234801561001057600080fd5b50336000806101000a81548173ffffffffffffffffffffffffffffffffffffffff021916908373ffffffffffffffffffffffffffffffffffffffff160217905550611a62806100606000396000f3fe6080604052600436106200005c5760003560e01c8063800fb83f14620000615780638c55174214620000815780638f32d59b14620000af578063b2bdfa7b14620000df578063bfb231d2146200010f578063cd31831e1462000155575b600080fd5b6200007f600480360381019062000079919062000a61565b62000183565b005b3480156200008e57600080fd5b50620000ad6004803603810190620000a7919062000bf5565b62000432565b005b348015620000bc57600080fd5b50620000c762000623565b604051620000d6919062000c78565b60405180910390f35b348015620000ec57600080fd5b50620000f76200067a565b60405162000106919062000cda565b60405180910390f35b3480156200011c57600080fd5b506200013b600480360381019062000135919062000a61565b6200069e565b6040516200014c9392919062000e75565b60405180910390f35b3480156200016257600080fd5b506200018160048036038101906200017b919062000a61565b62000785565b005b60006001600083815260200190815260200160002060000160009054906101000a900473ffffffffffffffffffffffffffffffffffffffff1690503373ffffffffffffffffffffffffffffffffffffffff168173ffffffffffffffffffffffffffffffffffffffff16146200022f576040517f08c379a0000000000000000000000000000000000000000000000000000000008152600401620002269062000f2f565b60405180910390fd5b348173ffffffffffffffffffffffffffffffffffffffff16633c8da5886040518163ffffffff1660e01b8152600401602060405180830381865afa1580156200027c573d6000803e3d6000fd5b505050506040513d601f19601f82011682018060405250810190620002a2919062000f68565b14620002e5576040517f08c379a0000000000000000000000000000000000000000000000000000000008152600401620002dc9062000fea565b60405180910390fd5b60006002811115620002fc57620002fb62000d62565b5b6001600084815260200190815260200160002060000160149054906101000a900460ff16600281111562000335576200033462000d62565b5b1462000378576040517f08c379a00000000000000000000000000000000000000000000000000000000081526004016200036f9062001082565b60405180910390fd5b600180600084815260200190815260200160002060000160146101000a81548160ff02191690836002811115620003b457620003b362000d62565b5b02179055507fa4035636e99f06b7651a604c1019fa4e8779fe68ef27eeb74dff2de348f6199b826001600085815260200190815260200160002060000160149054906101000a900460ff16600281111562000414576200041362000d62565b5b836040516200042693929190620010b5565b60405180910390a15050565b6200043c62000623565b6200047e576040517f08c379a0000000000000000000000000000000000000000000000000000000008152600401620004759062001142565b60405180910390fd5b60003082600254604051620004939062000954565b620004a1939291906200119d565b604051809103906000f080158015620004be573d6000803e3d6000fd5b5090508060016000600254815260200190815260200160002060000160006101000a81548173ffffffffffffffffffffffffffffffffffffffff021916908373ffffffffffffffffffffffffffffffffffffffff160217905550600060016000600254815260200190815260200160002060000160146101000a81548160ff0219169083600281111562000557576200055662000d62565b5b02179055508260016000600254815260200190815260200160002060010190805190602001906200058a92919062000962565b507fa4035636e99f06b7651a604c1019fa4e8779fe68ef27eeb74dff2de348f6199b60025460016000600254815260200190815260200160002060000160149054906101000a900460ff166002811115620005ea57620005e962000d62565b5b83604051620005fc93929190620010b5565b60405180910390a160026000815480929190620006199062001209565b9190505550505050565b60008060009054906101000a900473ffffffffffffffffffffffffffffffffffffffff1673ffffffffffffffffffffffffffffffffffffffff163373ffffffffffffffffffffffffffffffffffffffff1614905090565b60008054906101000a900473ffffffffffffffffffffffffffffffffffffffff1681565b60016020528060005260406000206000915090508060000160009054906101000a900473ffffffffffffffffffffffffffffffffffffffff16908060000160149054906101000a900460ff1690806001018054620006fc9062001285565b80601f01602080910402602001604051908101604052809291908181526020018280546200072a9062001285565b80156200077b5780601f106200074f576101008083540402835291602001916200077b565b820191906000526020600020905b8154815290600101906020018083116200075d57829003601f168201915b5050505050905083565b6200078f62000623565b620007d1576040517f08c379a0000000000000000000000000000000000000000000000000000000008152600401620007c89062001142565b60405180910390fd5b60016002811115620007e857620007e762000d62565b5b6001600083815260200190815260200160002060000160149054906101000a900460ff16600281111562000821576200082062000d62565b5b1462000864576040517f08c379a00000000000000000000000000000000000000000000000000000000081526004016200085b9062001082565b60405180910390fd5b60026001600083815260200190815260200160002060000160146101000a81548160ff02191690836002811115620008a157620008a062000d62565b5b02179055507fa4035636e99f06b7651a604c1019fa4e8779fe68ef27eeb74dff2de348f6199b816001600084815260200190815260200160002060000160149054906101000a900460ff16600281111562000901576200090062000d62565b5b6001600085815260200190815260200160002060000160009054906101000a900473ffffffffffffffffffffffffffffffffffffffff166040516200094993929190620010b5565b60405180910390a150565b61077280620012bb83390190565b828054620009709062001285565b90600052602060002090601f016020900481019282620009945760008555620009e0565b82601f10620009af57805160ff1916838001178555620009e0565b82800160010185558215620009e0579182015b82811115620009df578251825591602001919060010190620009c2565b5b509050620009ef9190620009f3565b5090565b5b8082111562000a0e576000816000905550600101620009f4565b5090565b6000604051905090565b600080fd5b600080fd5b6000819050919050565b62000a3b8162000a26565b811462000a4757600080fd5b50565b60008135905062000a5b8162000a30565b92915050565b60006020828403121562000a7a5762000a7962000a1c565b5b600062000a8a8482850162000a4a565b91505092915050565b600080fd5b600080fd5b6000601f19601f8301169050919050565b7f4e487b7100000000000000000000000000000000000000000000000000000000600052604160045260246000fd5b62000ae88262000a9d565b810181811067ffffffffffffffff8211171562000b0a5762000b0962000aae565b5b80604052505050565b600062000b1f62000a12565b905062000b2d828262000add565b919050565b600067ffffffffffffffff82111562000b505762000b4f62000aae565b5b62000b5b8262000a9d565b9050602081019050919050565b82818337600083830152505050565b600062000b8e62000b888462000b32565b62000b13565b90508281526020810184848401111562000bad5762000bac62000a98565b5b62000bba84828562000b68565b509392505050565b600082601f83011262000bda5762000bd962000a93565b5b813562000bec84826020860162000b77565b91505092915050565b6000806040838503121562000c0f5762000c0e62000a1c565b5b600083013567ffffffffffffffff81111562000c305762000c2f62000a21565b5b62000c3e8582860162000bc2565b925050602062000c518582860162000a4a565b9150509250929050565b60008115159050919050565b62000c728162000c5b565b82525050565b600060208201905062000c8f600083018462000c67565b92915050565b600073ffffffffffffffffffffffffffffffffffffffff82169050919050565b600062000cc28262000c95565b9050919050565b62000cd48162000cb5565b82525050565b600060208201905062000cf1600083018462000cc9565b92915050565b6000819050919050565b600062000d2262000d1c62000d168462000c95565b62000cf7565b62000c95565b9050919050565b600062000d368262000d01565b9050919050565b600062000d4a8262000d29565b9050919050565b62000d5c8162000d3d565b82525050565b7f4e487b7100000000000000000000000000000000000000000000000000000000600052602160045260246000fd5b6003811062000da55762000da462000d62565b5b50565b600081905062000db88262000d91565b919050565b600062000dca8262000da8565b9050919050565b62000ddc8162000dbd565b82525050565b600081519050919050565b600082825260208201905092915050565b60005b8381101562000e1e57808201518184015260208101905062000e01565b8381111562000e2e576000848401525b50505050565b600062000e418262000de2565b62000e4d818562000ded565b935062000e5f81856020860162000dfe565b62000e6a8162000a9d565b840191505092915050565b600060608201905062000e8c600083018662000d51565b62000e9b602083018562000dd1565b818103604083015262000eaf818462000e34565b9050949350505050565b7f4f6e6c79206974656d732061726520616c6c6f77656420746f2075706461746560008201527f207468656d73656c766573000000000000000000000000000000000000000000602082015250565b600062000f17602b8362000ded565b915062000f248262000eb9565b604082019050919050565b6000602082019050818103600083015262000f4a8162000f08565b9050919050565b60008151905062000f628162000a30565b92915050565b60006020828403121562000f815762000f8062000a1c565b5b600062000f918482850162000f51565b91505092915050565b7f4e6f742066756c6c792070616964207965740000000000000000000000000000600082015250565b600062000fd260128362000ded565b915062000fdf8262000f9a565b602082019050919050565b60006020820190508181036000830152620010058162000fc3565b9050919050565b7f4974656d206973206675727468657220696e2074686520737570706c7920636860008201527f61696e0000000000000000000000000000000000000000000000000000000000602082015250565b60006200106a60238362000ded565b915062001077826200100c565b604082019050919050565b600060208201905081810360008301526200109d816200105b565b9050919050565b620010af8162000a26565b82525050565b6000606082019050620010cc6000830186620010a4565b620010db6020830185620010a4565b620010ea604083018462000cc9565b949350505050565b7f4f776e61626c653a2063616c6c6572206973206e6f7420746865206f776e6572600082015250565b60006200112a60208362000ded565b91506200113782620010f2565b602082019050919050565b600060208201905081810360008301526200115d816200111b565b9050919050565b6000620011718262000d01565b9050919050565b6000620011858262001164565b9050919050565b620011978162001178565b82525050565b6000606082019050620011b460008301866200118c565b620011c36020830185620010a4565b620011d26040830184620010a4565b949350505050565b7f4e487b7100000000000000000000000000000000000000000000000000000000600052601160045260246000fd5b6000620012168262000a26565b91507fffffffffffffffffffffffffffffffffffffffffffffffffffffffffffffffff82036200124b576200124a620011da565b5b600182019050919050565b7f4e487b7100000000000000000000000000000000000000000000000000000000600052602260045260246000fd5b600060028204905060018216806200129e57607f821691505b602082108103620012b457620012b362001256565b5b5091905056fe608060405234801561001057600080fd5b5060405161077238038061077283398181016040528101906100329190610134565b816000819055508060028190555082600360006101000a81548173ffffffffffffffffffffffffffffffffffffffff021916908373ffffffffffffffffffffffffffffffffffffffff160217905550505050610187565b600080fd5b600073ffffffffffffffffffffffffffffffffffffffff82169050919050565b60006100b98261008e565b9050919050565b60006100cb826100ae565b9050919050565b6100db816100c0565b81146100e657600080fd5b50565b6000815190506100f8816100d2565b92915050565b6000819050919050565b610111816100fe565b811461011c57600080fd5b50565b60008151905061012e81610108565b92915050565b60008060006060848603121561014d5761014c610089565b5b600061015b868287016100e9565b935050602061016c8682870161011f565b925050604061017d8682870161011f565b9150509250925092565b6105dc806101966000396000f3fe6080604052600436106100385760003560e01c80632986c0e51461024e5780633c8da5881461027957806383d12eef146102a457610240565b36610240576000543414610081576040517f08c379a000000000000000000000000000000000000000000000000000000000815260040161007890610364565b60405180910390fd5b6000600154146100c6576040517f08c379a00000000000000000000000000000000000000000000000000000000081526004016100bd906103d0565b60405180910390fd5b34600160008282546100d89190610429565b925050819055506000600360009054906101000a900473ffffffffffffffffffffffffffffffffffffffff1673ffffffffffffffffffffffffffffffffffffffff163460025460405160240161012e919061048e565b6040516020818303038152906040527f800fb83f000000000000000000000000000000000000000000000000000000007bffffffffffffffffffffffffffffffffffffffffffffffffffffffff19166020820180517bffffffffffffffffffffffffffffffffffffffffffffffffffffffff83818316178352505050506040516101b89190610523565b60006040518083038185875af1925050503d80600081146101f5576040519150601f19603f3d011682016040523d82523d6000602084013e6101fa565b606091505b505090508061023e576040517f08c379a000000000000000000000000000000000000000000000000000000000815260040161023590610586565b60405180910390fd5b005b34801561024c57600080fd5b005b34801561025a57600080fd5b506102636102cf565b604051610270919061048e565b60405180910390f35b34801561028557600080fd5b5061028e6102d5565b60405161029b919061048e565b60405180910390f35b3480156102b057600080fd5b506102b96102db565b6040516102c6919061048e565b60405180910390f35b60025481565b60005481565b60015481565b600082825260208201905092915050565b7f576520646f6e277420737570706f7274207061727469616c207061796d656e7460008201527f7300000000000000000000000000000000000000000000000000000000000000602082015250565b600061034e6021836102e1565b9150610359826102f2565b604082019050919050565b6000602082019050818103600083015261037d81610341565b9050919050565b7f4974656d20697320616c72656164792070616964210000000000000000000000600082015250565b60006103ba6015836102e1565b91506103c582610384565b602082019050919050565b600060208201905081810360008301526103e9816103ad565b9050919050565b6000819050919050565b7f4e487b7100000000000000000000000000000000000000000000000000000000600052601160045260246000fd5b6000610434826103f0565b915061043f836103f0565b9250827fffffffffffffffffffffffffffffffffffffffffffffffffffffffffffffffff03821115610474576104736103fa565b5b828201905092915050565b610488816103f0565b82525050565b60006020820190506104a3600083018461047f565b92915050565b600081519050919050565b600081905092915050565b60005b838110156104dd5780820151818401526020810190506104c2565b838111156104ec576000848401525b50505050565b60006104fd826104a9565b61050781856104b4565b93506105178185602086016104bf565b80840191505092915050565b600061052f82846104f2565b915081905092915050565b7f44656c697665727920646964206e6f7420776f726b0000000000000000000000600082015250565b60006105706015836102e1565b915061057b8261053a565b602082019050919050565b6000602082019050818103600083015261059f81610563565b905091905056fea264697066735822122029b52ff4fa292d9524dc2e879cf43f75d7c80f96dce38f26c3f1a59555b4af2164736f6c634300080d0033a26469706673582212209eb29349391733313c84d29e0f0cf7b4938fc5a8480bd9ccf13e28f555c8727964736f6c634300080d0033",
  "immutableReferences": {},
  "source": "//SPDX-License-Identifier: MIT\r\n\r\npragma solidity ^0.8.9;\r\n\r\nimport \"./Ownable.sol\";\r\nimport \"./Item.sol\";\r\n\r\ncontract ItemManager is Ownable{\r\n    \r\n    struct S_Item {\r\n        Item _item;\r\n        ItemManager.SupplyChainSteps _step;\r\n        string _identifier;\r\n    }\r\n \r\n    mapping(uint => S_Item) public items;\r\n    uint index;\r\n \r\n    enum SupplyChainSteps {Created, Paid, Delivered}\r\n    event SupplyChainStep(uint _itemIndex, uint _step, address _address);\r\n \r\n    function createItem(string memory _identifier, uint _priceInWei) public onlyOwner{\r\n        Item item = new Item(this, _priceInWei, index);\r\n        items[index]._item = item;\r\n        items[index]._step = SupplyChainSteps.Created;\r\n        items[index]._identifier = _identifier;\r\n        emit SupplyChainStep(index, uint(items[index]._step), address(item));\r\n        index++;\r\n    }\r\n \r\n    function triggerPayment(uint _index) public payable {\r\n        Item item = items[_index]._item;\r\n        require(address(item) == msg.sender, \"Only items are allowed to update themselves\");\r\n        require(item.priceInWei() == msg.value, \"Not fully paid yet\");\r\n        require(items[_index]._step == SupplyChainSteps.Created, \"Item is further in the supply chain\");\r\n        items[_index]._step = SupplyChainSteps.Paid;\r\n        emit SupplyChainStep(_index, uint(items[_index]._step), address(item));\r\n    }\r\n \r\n    function triggerDelivery(uint _index) public onlyOwner{\r\n        require(items[_index]._step == SupplyChainSteps.Paid, \"Item is further in the supply chain\");\r\n        items[_index]._step = SupplyChainSteps.Delivered;\r\n        emit SupplyChainStep(_index, uint(items[_index]._step), address(items[_index]._item));\r\n    }\r\n}",
  "sourcePath": "C:/Users/Fajri/s06-eventtrigger/contracts/ItemManager.sol",
  "compiler": {
    "name": "solc",
    "version": "0.8.13+commit.abaa5c0e.Emscripten.clang"
  },
  "schemaVersion": "3.4.1",
  "updatedAt": "2022-04-22T10:11:59.139Z",
  "devdoc": {
    "kind": "dev",
    "methods": {
      "isOwner()": {
        "details": "Returns true if the caller is the current owner."
      }
    },
    "version": 1
  },
  "userdoc": {
    "kind": "user",
    "methods": {},
    "version": 1
  }
}